:100000004D424E014D3448300106040001002200EB
:100010006000000000C000000000000000000000C0
:100020000000EEEE000000000000000000000000F4
:1000300001000106000000000000000000000000B8
:100040000200100100002D000000000000B40000BC
:10005000030010012D00300000B40000000C00006F
:10006000001C00208D0100000000000000000000C6
:100070000000000000000000000000000000000080
:100080000000000000000000000000000000000070
:10009000000000000000000000000000550000000B
:1000A000810000009D000000590000006D0000006C
:1000B00000000000FEE70000034B01225A70A0235D
:1000C0000022DB051A707047200B0020034B012231
:1000D0009A70A0230022DB059A707047200B002045
:1000E00008B5044B01221A70034B0022DA7700F0A6
:1000F00095FD08BD200B00200800005038B5802574
:10010000ED052B79DBB2002B0CD130490B604B6035
:100110002B89081C9BB28B608A680C30103107F069
:100120005BFF47E0012B0DD1284BD968002941D056
:100130005A68186982423DDA5A68501C58602B7A16
:100140008B5437E0022B30D1204CE368002B2AD0AF
:10015000226821698A420CDA22689B5C1BBAEB6038
:10016000A3682068C01880B207F092FF23680133AB
:1001700017E0A2682368201C211CD2180C30103113
:1001800007F02AFFE368002B0DD0A16822688A18C7
:10019000A2601B781BBAEB60A06880B207F078FF02
:1001A0000123236006E0EB6004E0032B02D1074B40
:1001B00000225A60C0468023DB0501221A70C04627
:1001C00002221A7000221A7038BDC046D8020020E0
:1001D00080230222DB05FF321A600421024AFF312C
:1001E000118000221A70704706000040F8B5A02365
:1001F000DB059B684A4A1F21DBB21160D12B0BD073
:10020000D02B01D80133DBB2A022D2059168FF20A8
:10021000814319439160F1E70023424A42499A1809
:100220008A4204D24149C95804331160F5E7404B72
:10023000404A191D043B934203D200221A600B1C52
:10024000F6E7EFF308823C4B191D043B9A4203D9B1
:100250003A4818600B1CF7E7FFF7BAFF38493948EE
:10026000053989B280B204F08FFF374C374D012336
:100270005B4223716371A371E3712B1C3C331A78C9
:100280002B1C3D331B781B02134398423FD107F0D0
:100290008BFE2F4B2F4918882F4A88420BD06E7D3A
:1002A00018882B7D36023343984204D113889BB2C1
:1002B00023711B0A637113888B421BD0EE7DA87DCE
:1002C000138836023043834214D100200423013BBB
:1002D000DBB2FF2B07D0214EEF18F65C3F79B74217
:1002E000F5D10120F3E7002804D013889BB2A37155
:1002F0001B0AE371637922791B0213438B4206D0F8
:10030000E279A37912021A43124B9A4204D1144B98
:1003100002221A6062B6FEE700F082F8F7E7C046F4
:100320002800005000000020D802002018AE000075
:10033000DC020020190B0020940B0020CDCDCDCD88
:1003400000C0000000000000240B0020C0BF00001F
:10035000FEB30000FFFF0000BEBF000000B40000BD
:1003600000E100E0014B18607047C0462C0B0020F4
:10037000014B18687047C0462C0B0020014B1860D9
:100380007047C046300B0020014B18687047C046CC
:10039000300B0020014B18687047C0460000002059
:1003A00038B5114C256805F0D9FAA862256805F022
:1003B000D9FAE862256805F0D9FA6861256805F080
:1003C000D9FAA861256805F0E9FA0849236809689F
:1003D0001A1CF8320E31E861116002221A67E0330C
:1003E00003221A6038BDC04600000020300B0020F8
:1003F00008B502F047FF021E05D10749A9230B717A
:1004000007F07AFDFEE7054B1B6803CB04F04CFFB9
:10041000FFF7C6FF08BDC0460F050020C802002038
:1004200037B507F0F5FB6C46073420700AF06EFA1A
:100430000AF0CCFA02F08CFEFFF7DAFF07F0E8FBD7
:10044000051C0E2800D90E25E8B2034B8200D358B4
:10045000211C98472570F1E7040000200E4B322044
:100460001B680022191C88314860642088600220C3
:100470000861012048610A60CA60181C0121A4308B
:1004800049420160826001618261B83304380160D1
:10049000826001611A60704700000020F0B585B0ED
:1004A00000AFB960F86005F023FD83000A33DB0874
:1004B000DB006946C91A8D46041C684605F020FD1C
:1004C00063000833DB086D46DB00EA1A9546684690
:1004D00005F034FD00226E46111C013C06D3A3003A
:1004E000EB58C9186300F35AD218F6E72E4C0220D5
:1004F00023683B609C331C1C0C3C25680138632D31
:100500000DDD002525601D613D6801268835B44656
:100510007D6076429E6065467E684540356026680F
:10052000013626601C698C4200D219619D688D429B
:1005300000D999601E68012E09DD00241B4E1C6045
:100540001C623C689E6101269434464026601C680B
:1005500001341C601C6A944200D21A629D69954263
:1005600000D99A61043B0028C5D10F4EFC6833685E
:10057000BD681A1C88321268BD4692009A18111C78
:10058000A831A032096812688A1A22801A1C943293
:10059000126892009B181A1CB832B03312681B689C
:1005A000D31A2B8005B0F0BD00000020FFFF000033
:1005B000F0B585B01F1C0AAB1B78151C0191039385
:1005C000041C04F061FD1E4B281C1B680021DA6826
:1005D00092000AF09DFA019E002E0CD0201C05F01E
:1005E000EFFA184B281C1B68391C5A69002307F0C6
:1005F000EDFE013EF0E7002C0FD1124B1B685F6946
:10060000DB69029305F098F9061C05F09FF9029941
:10061000031C321C381C07F0C1FD281C0021019A64
:1006200007F028FF039B012B08D1002C06D1054BB6
:10063000201C1D6805F0F6FBFC35286005B0F0BDF8
:10064000C802002000000020F0B589B00591069294
:100650000793049007F084FD234B80791B68029078
:100660005A699B6905985A43002192000AF050FA92
:10067000029F013F7A1C2BD0049805F0A1FA1A4B77
:100680001E6872690192019B013B0393F1D3B46927
:10069000164B059AE518039B6343ED18AD005519F9
:1006A000013C13D3B368019A5343E3180133069A0C
:1006B0009B0098582B6818182860002F04D10299C5
:1006C0000AF074FA00042860043DE9E7039AD9E7C8
:1006D000079B012B06D1064B04981C6805F0A2FB72
:1006E000FC34606009B0F0BDC8020020FFFFFF3F8E
:1006F000000000207FB53B4B1B681A1CDE321278CD
:10070000002A04D11A1CC0321278002A02D06833A1
:1007100000221A70FFF73EFE041C08F077F8061C52
:1007200008F05AF8304B1B88033B052B25D8E36BA8
:100730000B3B0B2B21D8256B616C281C0AF084FA2B
:100740000338042819D80B3D0E2D16D88D239B0095
:10075000F558012D11D1231CF6331B78002B0CD139
:10076000231C78331B78002B07D1626F052A02DC2B
:100770000132626703E0636730E000236367231C94
:1007800068331D78002D1CD0E26E18490192A36BCE
:10079000002002930323226B4B707C235B42039265
:1007A000CB7001AA10230B7107F0A6FBE36E226F3A
:1007B0000025934202DC0133E3660FE0E566012584
:1007C0000CE0A36B226B0A49019302926423092077
:1007D00001AA03950B7107F08FFBE566281C04B096
:1007E00070BDC046000000202404002074000020DA
:1007F0007B000020F0B56C4E93B0336804AF1C68EA
:100800003A6104346400221C0832D2086946D200DE
:10081000F860881A5A68854604325200131C08335F
:10082000DB08DB00C01A04AD8546B96004A9796114
:10083000081C00210AF06CF9221C281C00210AF077
:1008400067F95A4CF86823685A69191CDB690090EB
:10085000281D01907869303104300290386903F026
:1008600025FD336878609A6891001A682368013220
:100870004A43586900210AF04BF92068436D6430FF
:10088000036008F075FF2368586900957A69191CA0
:1008900001925C313A69303303F068FEBB689D46D3
:1008A00007F076FC051C07F0B1FF2B7B002B0CD06A
:1008B0005C300378002B08D122683423FF33D35CEB
:1008C000012B02D0012004F009FE336838495A6830
:1008D00018684A709A68CB787F250870AB4302206D
:1008E0008024034364422343CB7053238A700B71EB
:1008F00001323B6952009A18012007F0FDFA381CBA
:100900000021202218300AF003F93368186859686A
:100910009A6838767976BA760533DB7F3969FB7663
:100920007B7F0220AB430132034352008A181C43F1
:100930007C77391C0092002201201831131C07F02B
:10094000A1FA02F009FC02F08BFCFFF7D3FE0028AD
:1009500026D1164C2368586905F0DAF92568281C59
:10096000291C5C31303003F0E3FD23682866186EE3
:1009700005F02CF904F09AFF7A68002A07D1236861
:10098000F8681A1C30321B68396907F06FFC0220C6
:1009900004F0D2FD2068643008F0EAFE052000E093
:1009A0000420BD460FB0F0BDC802002000000020AA
:1009B00008050020F0B59400231C0A3385B0DB083D
:1009C000DB006946C91A02AF8D4602AA061C7A608E
:1009D000101C0021221C0AF09BF8231C0833DB08A2
:1009E000DB006946C91A8D4602AD281C221C002175
:1009F0000AF08EF80C4C301C2368D96A9A6A5C3372
:100A000000910193291C7B6808F0D4FE301C02F091
:100A10006BFC2368301C9A6ADB6A291C00937B6894
:100A200008F022F9BD46F7BD0000002070B50C1C8F
:100A3000151C1E1C08F0BAFB0B4B201C1B68996A86
:100A4000DA6A08F0B1FC201C09F06AF8291C201CA5
:100A500008F0A4FD291C321C201C08F015FE291CDE
:100A6000201C03F079FB70BD0000002038B509F0B0
:100A7000FDFE051C012009F00DFF041C281C04F0DC
:100A8000EBFA201C04F0F4FA38BD38B509F0DAFFAF
:100A900009F0F4FE051C002009F0FCFE041C281CD3
:100AA00004F0DAFA002005F0DDF8201C04F0E0FA8A
:100AB00004F0F6FC38BD10B5A4B08C22041C002153
:100AC00001A80AF025F801A8211C08F01FFE08F073
:100AD00047FE01A8211C02F0C5FC24B010BD000097
:100AE000F7B5071C07F092FE484E34682379002BB7
:100AF00002D0012B2CD065E0454A211C1268FC3144
:100B000012780D68816E2260002905DC2169414B55
:100B1000994202D02369013323612369934251DD55
:100B2000C36E002B4ED1221C84321370391CA26973
:100B30000420FFF789FD04F029FD012005F040F8AD
:100B400004F07CFE01239A2231689A408B542CE0F9
:100B50002F4B271C1B68FC3701935B787D68236053
:100B60002069231CFE330130598B0AF0C3F8002999
:100B700004D12369002B01DD3B68ED18231CFF33F2
:100B8000DB7E012B09D1019A3D6813780222236094
:100B90009A235B00E254002307E022691D4B9A422E
:100BA00010D02369013323610CE031680022081C56
:100BB000FF30C2760B710A6117490E33101C0B719E
:100BC00007F09AF93368186805F0F8F9041C281C36
:100BD00005F018FA241A0120002C08DD3368186883
:100BE00005F0ECF9041C281C05F00CFA201A3168F9
:100BF0009A2252008B5C012B02D100208854181CD1
:100C000004F06CFC04F08CFCF7BDC0460000002032
:100C1000300B0020FFFFFF7F0F05002008B50B4BB6
:100C200034221B68FF329A5C002A0DD11A79012AFE
:100C300005D1FF33DB7E0420002B05D102E0002A22
:100C400002D1022004F094FF08BDC046000000203D
:100C5000F0B587B007F09CFA071C07F0D7FD816E4E
:100C6000A34B002906D1046F621E9441E4B2002C0C
:100C700005D000E001241A680021C83205E01A6896
:100C8000C8321168FE2901DC013111601B680021A6
:100C90001A1CDC3215881180183A029511708C42AA
:100CA00004D094490968C97C002958D0181CC33065
:100CB0000178C9B2002908D003785BB2022B00D0BA
:100CC00001231370002303700EE11E1CC03635781B
:100CD000002D09D0012515701A1CC132CC330170CA
:100CE00031701170196000E1002C38D1191CCC3121
:100CF0000D68002D08DD013D012D01D00D602EE0B5
:100D000003230C601370F0E01A1CF832126811888B
:100D1000794A914223D01A1CD8321188774A126836
:100D2000D2898A421BD8734D2868027C181CC830AF
:100D30000068904213DB05AA1180DA331B887049E2
:100D4000538002234B70CB70201C15230B7107F0CE
:100D5000D3F8674B2A681B68527CCC331A60654E07
:100D60003368987C002800D0BEE0614D002C22D171
:100D70002A689B7FD43212689A4214DB614912239D
:100D8000201C221C0B7107F0B7F82A683068131C6E
:100D9000D033196801311960C07F814203DB1C60C8
:100DA000C432022313702A680023111CC231D432CA
:100DB0000B7013603DE02B681A1CCC3210602A3295
:100DC0001278002A35D0191CD831098805AA11805B
:100DD000DA331B884A49538002234B70CB701923A6
:100DE0000B7107F089F82B683268191CD8310D880F
:100DF000908B1639854214D2181CDA300588108D74
:100E000085420ED2908D029D85420ADA097800292A
:100E10000FD1D4331968927F91420ADA01311960F7
:100E200007E001220A70191C0022D431D0330A6075
:100E30001A602F4E3268131CF6331B78002B53D1E7
:100E40003B7B002B4ED0131CC0331D78002D4BD1A3
:100E5000284F106B3B683A689B8A118B9C463B6815
:100E6000528BDB8A0093634607F034F93B680390AA
:100E70009B8C32689C463B68106BDB8C3A68118C0B
:100E8000528C0093634607F025F933681A1CD83258
:100E90001188039ADA33914207DA1A88824204DA17
:100EA0003A680298528D904210DB05AA11801B8887
:100EB0001349538002234B70CB70002017230B7112
:100EC00007F01AF833680122C1331A7033681A1C0C
:100ED000C1321278002A07D0002C05D0C03301227D
:100EE0001A7002E0C13213700125281C07B0F0BD52
:100EF000000000202C0B0020FFFF0000300B002022
:100F0000740000200F050020F0B58FB000AF3961EC
:100F1000061C04F0B3F8786104F0A4F89C4DB860A6
:100F20002C686846E268131C0E33DB08DB00C01A2D
:100F3000854660686B461218FB62131C0E33DB0893
:100F40006946DB00C91A53000E33DB08DB008D460F
:100F5000C91A684679628D460021786309F0D8FD88
:100F6000E06861684218012152004942786A09F03C
:100F7000CFFD2369E2688749D2189200386909F0E9
:100F8000C7FD2B68F86ADA68796909F07FFD002EE1
:100F900014D17F4D804C2B6808201A681B79227071
:100FA0006370A3707F235B42E370211CD223FA6A33
:100FB000237106F0A1FF2B681B68BCE040240025CC
:100FC000FC61BD6200210122F86A05F0ABFA032042
:100FD00004F0F6FD6E4C704923681E6858689A68E4
:100FE0000423CB7051230B716C4B8A701B68013248
:100FF0005B69920048709A1802200E7006F07CFF20
:1010000023681B683B63396B614B0139B96100D2BE
:1010100081E01B6859688C466646013EB44677D32A
:101020005B4BBA6918683C6943685D4D5343634440
:101030009A00A2181168A942EED03E6B8068574C06
:1010400070432468604464690130800000595E0088
:1010500084B23C62201CA14203D87D6A611AA95364
:1010600020E07C6AA6190025745F7E60013414D0EC
:101070007E6BF41825786EB2FE60013601DA013518
:1010800003E0FE68002E08DD013DBB6A44480133E1
:101090009BB22570BB6210602CE07D6BEC1825784C
:1010A000002D01D110600CE06DB26E1C05D1386AC4
:1010B0007A68091A1180002202E0012D01D1FF2275
:1010C00022707C6BE1180A7850B2002806DC7D6A39
:1010D0005800405F013007D0002A05D1FE6A013276
:1010E000F3563E2B05DD05E0FC6AE356002B01DDDF
:1010F000013A0A70264BBD691B687E6B5B687C6990
:101100006B436344F15CE25CFD6A8A18EA5483E74E
:10111000B869386377E71B68BC6ADA681B69D3185B
:101120009C4200DB35E7FB69013BDBB2FB61002B36
:1011300000D047E72DE7013B11D32A685268013AF6
:10114000F9D32968FE6A4968594389187118BE683D
:10115000F0183F300E78007830180870EFE7F86A22
:101160000021012205F0DEF92B68211C18681B798B
:1011700020706370A3707F235B42E37008201D23FF
:10118000FA6A237106F0B8FEBD460FB0F0BDC04646
:10119000C8020020FFFF000008050020000000201A
:1011A000FEFF000038B5051C0C1C03F05BFF34305B
:1011B0000078211C434258412840FFF7A5FE38BD66
:1011C000F0B5434C87B000AF2668B960051C06F047
:1011D00035FD3423FF332168F054CA5C3D4C002AAE
:1011E00011D123680A2098621020D862FF311220A2
:1011F00018634A7109F08AFB09F0E8FBFFF7F8F879
:1012000004F09CFD14E006F0B7FF0026067009F01C
:10121000D3FB236803CB04F047F8FFF7C1F823683A
:1012200002221A629A620622DA6208221E611A6398
:1012300023680A26D8699C6A8200111C0A31C908F1
:10124000C9006846401A786185465968186866433F
:1012500041438900331C0A31C9080833C900684674
:10126000DB08401AA400DB00C11A231C0833DB088A
:10127000DB0085468D467860C91A684638618D4620
:10128000F9607869002109F043FC321C38690021BB
:1012900009F03EFC221CF868002109F039FC0E4BD5
:1012A00000229A603A6978687969DA60084A1860B9
:1012B000F8685960126834211861FF31525C07499F
:1012C00090004458281CB968A047BD4607B0F0BD3F
:1012D00000000020C8020020340B00204000002045
:1012E00010B5041C06F02CFD06F092FCA042FBD0C9
:1012F00009F0E8FAFFF77CF806F020FB10BD0000CB
:10130000F7B500AF051CFFF7B1FBFFF73DF82C4B1D
:10131000041C1B68DE8906F041FC6B4600207B60E4
:1013200004F0A0FC04F066FC264B1B6831331B78EC
:10133000002B04D00020E081291C00F023FB04F0E6
:10134000D9FAC0B206F024FEFFF72AF81E4B01209E
:101350001B68DA681B69D3189B000A33DB08DB00C3
:101360006A46D21A95466946FFF71CFF7B689D4680
:1013700006F0E6FC06F0EEFC052815D004D800289F
:1013800014D003280AD806E006280AD0031C113B13
:10139000DBB2022B0AD801F0A7FC07E005F078FBCE
:1013A00004E004F07DF801E004F068F806F030FC99
:1013B000A842DFD0FFF769FBBD46E681F7BDC04616
:1013C000300B00202C0B0020C802002098B500AF85
:1013D000041C06F0B5FC0B4B01201B68DA681B6986
:1013E000D3189B000A33DB086A46DB00D21A954605
:1013F0006946FFF7D7FE06F00BFCA042FBD0BD46C6
:1014000098BDC046C802002010B5041C06F098FC28
:1014100001F068FC06F0FCFBA042FBD010BD10B54B
:10142000041C06F08DFC04F011FD06F0F1FBA04257
:10143000FBD010BD10B5041C06F082FC0220211C5C
:1014400000F0A0FA06F0E4FBA042FBD010BD10B5FE
:10145000041C06F075FC0120211C00F093FA06F034
:10146000D7FBA042FBD010BD10B5041C06F068FCF1
:10147000002004F0A5FB04F003FC06F0C9FBA04229
:10148000FBD010BD10B5041C06F05AFC002003F080
:10149000FDFE002004F094FB04F0F2FB06F0B8FB24
:1014A000A042FBD0012003F0F1FE10BDF0B5A3B0C7
:1014B00002AF386106F044FC002009F0BDFA09F0E3
:1014C00085FA002004F0CEFB5B4C694623685D681A
:1014D00018681B694543EB180733DB08DB00C91AA2
:1014E0008D4602AAFA6103F0C9FD03F0BBFDFB695A
:1014F0005D19181C291C7D6104F03AFD23686C46B7
:101500005A681B69D3189B000A33DB08DB00E41A16
:10151000A54602ACBC6106F013FC381C0021202259
:10152000203009F0F5FA444C202023680125196881
:101530001A79C15521202221C255CA550533DB7FB6
:1015400025202322D355C35D7F229343FA692B4381
:10155000C1190B7000920022131C0420053906F0FB
:1015600091FC79692A1CF86904F0DCFF002004F082
:1015700027FB2568B8696E682B69B4009B199C46E7
:101580002E4B04191968BC60002363450CDA9A00DD
:10159000B34203DACC69B869A45802E04C6AB8686F
:1015A000A45884500133F0E73C1C4034201C002137
:1015B000202209F0ADFA2968AB6821706670A3702B
:1015C0000535EA7F7F26E27062790425B2432A431B
:1015D00062711A4A013312689B005269211CD318A8
:1015E0000022203400930220131C06F04BFC201C28
:1015F0000021202209F08CFA012323700E4B211CBC
:101600001B6810201A7905336270A270DB7FBA69FB
:10161000E3706379B3431D43657100920022131C8C
:1016200006F030FC06F0F4FA3C69A04200D174E701
:10163000BD4621B0F0BDC046C80200200000002019
:1016400010B5041C06F07CFB06F0E2FAA042FBD0C9
:1016500010BD0000F0B58BB000AFB86106F080FDA2
:10166000584C6E4623689D68DB687D625A00111CE9
:101670000E319B00C9080E33C900DB08DB00761A67
:10168000B546F61A6D4600216846B5467D61FE6096
:1016900009F03EFA002004F093FA7E6A4A4A206874
:1016A0001568B20052420368BA60321C5A43910076
:1016B000F961B107711A79609107891A3A62013BA1
:1016C00023D344683E6A3219261C5E437618B40060
:1016D000FE68920034193C61FC69A2420BD03C695F
:1016E0000426A418A4466C697642A458B4446646FD
:1016F0003460043AF0E7BE683A6AA419FC617C6A77
:101700007E68121B3A628919D9E7BC690B2C55D146
:10171000002004F055FA2B4B19682B4B08681C6805
:101720007B6AB86143439A003A629A07D21A3A61D7
:10173000FB61844666464A68013EB4462ED3654640
:101740005543FE692148B318121852197E69386949
:101750005200B2182D18FE68AD0075199B003D604F
:101760003E6AB3420ED03D68E818656904380668E1
:10177000E858301A0025565F864200DA1080043B94
:10178000023AEDE7BD6876193E627D6AFE69761B16
:10179000FE617D683E6976193E61CBE70C49B86908
:1017A0007E23D2B25B4208704A708A70CB700120EF
:1017B00052237A690B7106F09FFBA9E7BD460BB077
:1017C000F0BDC046C802002000000020FFFFFF7FE0
:1017D0000805002010B5041C06F0B2FA201CFFF723
:1017E00039FF06F015FAA042F8D010BD70B50378A5
:1017F00086B0041C012B2BD103F028FC6568164C25
:10180000266806F029FAFF36B07504A806F05EFADD
:10181000684606F027FA69460F22281C09F036F9B7
:1018200023688B2149005A182978FF331170987D5D
:10183000049A059B05F060FB2368FF33DC7D640898
:10184000201C05F0EDFB201C05F0EEFD04F076FAFF
:10185000012006B070BDC0460000002008B54168F8
:1018600003780A4A0A4812680068F8320E3010609D
:10187000002B03D0C9B2002000F084F804F03AF83D
:10188000C0B206F085FB022008BDC0460000002063
:10189000300B002008B503680079002805D101202D
:1018A0001968FFF77FFC032004E0013843424341FD
:1018B0000520C01A08BD0000037A70B50678456897
:1018C000002B05D0012B06D104F038FA002303E0E9
:1018D0000123042401E001230524044A70B21268A4
:1018E000291C9269FEF7B0FE201C70BD000000208C
:1018F000037BF7B504680679057A0527012B02D129
:1019000004F01CFA032706F037FC76B2417822680F
:10191000301CA3680095FEF74BFE381CFEBD00008E
:10192000F0B5174B87B01A683423FF33D25C0C1C18
:10193000076846688568C368002A05D1F8B2311C7B
:101940002A1C00F08DFB16E05A78197812020A431F
:101950009978FFB209040A43D97868460906114309
:1019600005910B22191D09F091F8381C311C2A1C15
:10197000059B01F0F7F82070207807B0F0BDC04655
:1019800000000020F0B5CC4C9DB000AFF86320689B
:101990007960407C43000133FB65786303F09AFF74
:1019A000236878665B7CFF22D31A984200DD7B6651
:1019B000786E7C6B041B3C636C4603F093FFBC6544
:1019C000FC6D684665002B1C0833DB08BB4CDB0054
:1019D000C01A012363707C235B423A1C8546E37086
:1019E000211CB1230020643223716E4606F084FA74
:1019F0000023211C3C6B5A001819FC6D0133B052B6
:101A0000A342F7DB0223CB70321CE4B26323002035
:101A10004C700B717C6406F06FFA2B1CBC6D0833A4
:101A2000A546DB08DB006846C01A8546C01A6C462E
:101A30008546BC65386404F05BFAF861012003F068
:101A4000DDFD00212A1C386C09F062F8B86D002118
:101A50002A1C09F05DF8FC6D6846A400231C0A33BB
:101A6000DB08DB00C01A8546C01AFC6278626C464F
:101A70008546C01A8546BC626C46BC61FC69A40000
:101A8000BC600024FC640021FA6AB86A09F040F8DE
:101A9000786AFF21FA6A09F03BF80024864BBC649F
:101AA0001B68BC6C1B7C9C4251DA3C6B0026E4B288
:101AB000201C7C6103F023FF03F0ECFE03F094FD97
:101AC000BC697D6A3C62BC6AF86D0136F217C30FCF
:101AD00086425341DBB23B61002B06D179698819FC
:101AE000C0B203F00CFF03F0D5FE6B46FB60BB6891
:101AF0006A460A33DB08DB00D01A85466A467A65F7
:101B000004F0FEF90020031CFA69934205DA796DAE
:101B10009A008A5801338018F6E72368984200D962
:101B200020602968884200D2286003F051FD3A6A9B
:101B3000043501C23A62FB6838699D4604340028C6
:101B400002D103F051FDBFE7BC6C0134A6E70025CC
:101B50005B4E2C1CB96A7A6AA300C858D358C01AC5
:101B6000022C06DD864204DD3B6B061CE318BB63DA
:101B70003C65854200DA051C03F02AFDB96DFA6D5B
:101B800063000134C8529442E4DB281C03F020FDBA
:101B9000494B1B68DB89984206DAFC6B012C03D0A9
:101BA0007C6EBC637C6B3C65FEF758FCFC6B012CC7
:101BB00021D13A6C0023BC6D5900615A10888842CB
:101BC00000D21180FC6D01330232A342F3DB3C6D85
:101BD00063003C6C1A5BFC6C131CA24200D2231CF9
:101BE00036499BB27C6CFB64002002234C70CB70A6
:101BF00008713A6C19E0F86B304C022808D1796C06
:101C0000042300206170E3702071211CBA6927E071
:101C1000281C03F0DDFC7A6C80B2F8646270022349
:101C20000020BA6DE3702071211C06F065F93C6D4F
:101C30006823DC53BC6B6A20C4533C6D6E21630087
:101C4000BC6D6C201B5BFC6CC353CC531B49042341
:101C50004B700223CB703A1CB2230B710020683208
:101C600006F04AF9174E3C6D32686300111CF831DA
:101C7000BC6D09681B5B09888B4227D9002925D0D8
:101C800008F0E0FE041C08F015FEC379051C002BCB
:101C900006D0012006F070F93368F8331D6027E0A4
:101CA000002C25D1084B1B689B7C002B20D10120E8
:101CB00006F056F91CE0C046300B002074000020EE
:101CC000FFFFFF7F000000202C0B0020F73212786E
:101CD000002A0DD00E4C2068C2899A4208D90020F3
:101CE00006F04AF90B4B22681B680E32F8331A6073
:101CF000FC6B002C06D1BC6BE0B203F000FEBD46CD
:101D00001DB0F0BD7B68063B012B00D8BBE6F2E7B7
:101D1000300B002000000020F0B585B00092039148
:101D2000029008F08FFE061C05F0EAFF071C05F084
:101D3000EFFFA04D01902B681A1CF4321278BA42C2
:101D400020D0002F08D09C4900203B23021C0B719F
:101D5000022606F0D1F810E00199052400290DD1E2
:101D600095493C23381C3A1C0B7106F0C5F82B68CA
:101D7000F6331E78731E9E41F6B201242B68F433AD
:101D80001F701DE01A1CF532127801998A4216D094
:101D9000002906D1F6331E78731E9E41F6B23A230F
:101DA00001E03923022684490020021C0B7106F051
:101DB000A3F82B68019AF5331A70012400E005247A
:101DC00005F02EFF071C05F093FF009B032B02D0AC
:101DD000002F03D107E00124002F36D0002005F0AA
:101DE00027FF012431E02B68F4331F88002F2CD10A
:101DF0000099012902D0022904D00EE0009806F0D3
:101E0000AFF80AE0381C06F0ABF82B68F7331B7804
:101E1000002B02D0381C06F0AFF806F09BF82B68B8
:101E2000071CF6331B7883420FD0002802D0112301
:101E3000012601E01223061C5F490020021C0B71E1
:101E400006F05AF82B68F6331F7008F0FBFDB0421D
:101E500038D008F0F7FD08F011FD071C301C08F021
:101E60000DFD009008F0EEFD301C08F0E5FD08F0D7
:101E7000ADFD524B1B68DB7C002B0FD0012C0DD02D
:101E8000009B3A1C363236330298039906F0C2FAA8
:101E9000002003F095FEFEF7E1FA06E02B68002033
:101EA000DE33187003F0DEFE0124002006F064F833
:101EB0002B6800211A1CF7321170414AF83312685E
:101EC0000E321A6008F0BEFD08F0F4FCC379002B56
:101ED00008D006F04BF82B68F7331A78824201D00D
:101EE0001870012406F092FC061C05F019FF3379E6
:101EF000834200D0307105F0F5FE3279051C314B7C
:101F0000002A01D0002200E00278F254AB7A012BC3
:101F10002DD12D4A6B7A297AB25A1B020B439A4271
:101F200019D1D322EB799200A979B25A1B020B4343
:101F30009A4210D1D222EB789200A978B25A1B02B1
:101F40000B439A4207D1214A6B792979B25A1B0275
:101F50000B439A4206D0D2229200B018A91C0A2242
:101F600008F094FD1A4A0023B354AB721FE02B7C97
:101F7000012B1CD1D522EB7B9200A97BB25A1B020C
:101F80000B439A4207D1134A6B7B297BB25A1B023F
:101F90000B439A4206D00F4B291CF0180C31062235
:101FA00008F074FD0A4B0122F25400232B74201C0C
:101FB00005B0F0BD000000200F0500202C0B002014
:101FC000300B0020460300004E0300004A030000CF
:101FD0006203000052030000F0B59BB01C1C0A9382
:101FE00004236E460E9363680022051C0736012009
:101FF000327002920392049205920690079508921D
:1020000009920B920C920D920F93109211921294CE
:102010001392149015921695179118941993171CF2
:10202000B90002AB3F01D8190B4BCB58311C984774
:10203000071C05F003FE094B1A683423FF33D35CF9
:10204000834204D0E068FEF736FD1BB0F0BD05F01A
:10205000DFFDA842E4D0F5E74C000020000000209E
:10206000F0B56B4EC9B001933368151C1A1C0024DF
:10207000FF321C71D4761C610F1C009006F0CCFB63
:10208000644B019A1B680A940B940C940F9410945F
:1020900009950D950E929A895878FA215043890036
:1020A00008F0D2FD34683B78009AFE346083934296
:1020B00003D005F045FE009B3B7006F0A7FB002116
:1020C000041C8C2225A808F023FD0021282211A839
:1020D00008F01EFD03AF002128221BA808F018FD00
:1020E0000A22381C002108F013FDD9239B0025AAE1
:1020F000E250DA239B0011AAE250DB239B001BAACB
:10210000E250DC239B00E750414B00221B689A60A1
:1021100005F038FF041C03F0EDFBA04206D0201CA4
:1021200003F0EDFB03226B46DA7258E03A490020D7
:10213000A623021C0B7105F0DFFE0198FEF7D0FC10
:1021400031686C46081CD830DA31FEF7A7F9334BFA
:1021500033491B6802205B680B344B700423CB703F
:102160005B230B713368DA6905F0C6FE33682D49CD
:102170001A1CD83212880C2006921A1CDA321288E5
:10218000DC3307921B8806AA089301230B7105F024
:10219000B3FE3368244A1879211C8300D318000148
:1021A00009AA10189B6998473368C4229A56286870
:1021B000A968FFF7B1FD052800D020701B4B1A68F5
:1021C0001B4B9A4202D003F041FEFEE7104B194A26
:1021D0001B689968914202D09A6801329A606C46F5
:1021E0000B342378052B02D0207849B0F0BD05F0E0
:1021F00025FD074B1A683423FF33D35C8342F3D1A8
:1022000005F006FD009B984200D181E7ECE7C0464F
:1022100000000020300B00200F050020C802002025
:10222000740000207B0000204C000020900B002058
:10223000CDCDCDCDFFFFFF7FF7B5434C151C2368F7
:1022400001911A1CC1321278061C002A23D01A1CD4
:10225000F6321278002A1ED11A1CDE3211780029BB
:1022600019D1C0331B78002B15D10123137002F054
:10227000F9FE071C02F0EAFE3A1C031C36323B331F
:10228000301C019906F0C6F803F066FC022003F04A
:102290006FFCFEF7E3F823681A1CDE321278002A7E
:1022A0004ED01A1C294F0020C03210703A6801909D
:1022B000126A011C013A0ED30E265643B446AC44B2
:1022C0006646B688002EF5D036B20131B042F1DA5A
:1022D000301C0192EEE71A1CF6321278002A12D155
:1022E000012910DD06F092FA012383663B681B6A20
:1022F000013B0AD3019EB342FAD00E225A43002179
:10230000AA189180F4E7002904D023680022E4335E
:102310001A6008E01A1CE432E03311681B68994225
:1023200001DC013111602368191C1A1CE431E03210
:1023300009681268914205DDC03301221A7001E07C
:10234000E4331A60F7BDC04600000020C802002038
:10235000F0B5744E99B00468306802AF39602C2231
:102360000021303008F0D4FB381C00212022183026
:1023700008F0CEFB6C4D02202B685A6819687A76FB
:102380009A683976BA760533DB7F7F21FB767B7FCF
:1023900001328B4304210B437B77336892005B69E6
:1023A000391C9A1800920022131C183105F06AFD9E
:1023B0002B6869469A68796151001A6802324A436B
:1023C000131C0833DB08DB006946C91A8D4602AED0
:1023D0000021301C08F09CFB321C00232068A168FF
:1023E000FEF708FAF8607A69FB689546052B00D07D
:1023F00086E02E68111CF36A7A601A01131C0833F8
:10240000C91A8D4602AB181C00217B6108F080FBC5
:10241000F26A7869E168FEF7CDFA2B6869469A6A34
:102420000E235A43131C0833DB08DB00C91A8D4600
:1024300002AD0021281C08F06BFB23697869291C78
:10244000E268FEF7F3FAFEF703FC384B1B68DB7C0F
:10245000002B04D12068A1682A1CFFF7EDFEE1687B
:10246000281C00F0FFFF07F00DFD83000733DB0899
:10247000DB006A46D21A954602ABBB602A4B0E229D
:102480001C68061CA16A38610B1C013B5343ED1804
:10249000796104357A69013A7A610FD30022AB5E23
:1024A000002B09DD3B69B968013B9800081804223C
:1024B000291D3B6108F0EAFA0E3DEBE73D1C38357B
:1024C00000212022281C08F023FB236861682B7060
:1024D0006970A3681349AB7009680534E27FC96A63
:1024E0000133EA705B007E22CB1852426A7100937E
:1024F000F2B20320291CBB6805F0C4FC7A6895463B
:1025000003F014FA03F028FB03F040F8012003F075
:1025100057FB03F093F9F9683B68BD46197017B093
:10252000F0BDC04600000020C80200202C0B002097
:10253000F0B505279FB012975F6800240122051CA3
:102540006E4602A81B911C490736069207900A9214
:102550000E930F92139714921693062719921C93B9
:102560001D903F23201C221C3470089409940B9565
:102570000C940D94109411941594179718941A951F
:102580000B7105F0B9FCA20006AB240118190B4B26
:10259000311CD3589847041C05F050FB084B1A68AF
:1025A0003423FF33D35C834203D105F031FBA842CF
:1025B000E9D01FB0F0BDC0460F0500204C00002040
:1025C00000000020F0B589B004921A1C120C0D1CFA
:1025D00099B2041C05930391029206F0FDF8061CC3
:1025E000022C3DD104231D4041D0294B1F680368B4
:1025F0007D680398191C6843019308F025FBC343C9
:10260000DB1718406B46C4B2188A039B18184000A9
:10261000019B01386843590008F016FB0130A842BD
:1026200000DD281C76683F68C5B20298311C7843EB
:10263000019608F009FBC343DB1718406B46C6B28E
:10264000588A029B18184000019B013878435900B2
:1026500008F0FAFA421CBA4200DD3A1CD2B209E094
:102660000B4B00241B68261C1D791A7802E02C1CD9
:102670002A1C2E1CFF23301C1A40184012021C403A
:10268000240410432D062043284309B0F0BDC04662
:10269000C8020020F0B595B002AF7B603B1C6033F0
:1026A000041C396101CB79681B780E78FA61BB6034
:1026B000D84D002E00D0A1E03A691378082B0BD139
:1026C00003F03CFB2B6861689A690520331CFDF719
:1026D000BBFF3B691E708EE06A4605207A6103F0FD
:1026E0006FFACD4B1B6898695A69410001324A4321
:1026F000131C0833DB08DB006946C91A8D4602ABA0
:10270000311C181CFB6108F003FA2B686268996998
:10271000F86905F0EFFE061C06F05EF82A1C012E93
:102720000ED12B68FF33597D002909D1F4301A7E70
:102730000078904201D8197611E001321A7620E033
:1027400013680022FF335A751A76B44B60681B6811
:10275000F96933331A7805F0D5FF012E11D103F052
:10276000EDFA062003F02CFA78683969002201237B
:1027700003700A70AA49A323101C0B7105F0BCFB5F
:1027800037E0A44DA54E2A683368FC3233331B78FA
:1027900012695B009A420EDD03F0D0FAA36822684A
:1027A0000024009406200121FDF702FF2B68FC3372
:1027B0001C6103F0C3FA2B689A49FC331A698A42F8
:1027C00001D001321A6105F079F805F015F8336887
:1027D0003333187802F08EFE002002F0ADFEB868A8
:1027E00003F08DF805F02CF802F04EFC3A6EAC3098
:1027F00002607B699D4605207861A6E1874E3368BB
:10280000343318782B68186002F074FE062003F049
:10281000AFF981486A460368BA619A686846510010
:102820001A6802324A43131C0833DB08DB00C01A63
:10283000854602A97961081C002108F069F9286819
:1028400000212C22303008F063F97A692068A168F1
:102850000023FDF7CFFF7861BA699546052800D0BF
:1028600073E13368FA215A8F343318788900504362
:1028700008F0EAF96849B8600E686846F36AF860DB
:102880001A01131C0833C01A854602AD281C00210A
:1028900008F03EF9F26A281CE168FEF78BF85E4901
:1028A00068460B6800219A6A0E235A43131C0833AA
:1028B000DB08DB00C01A854602AE301C08F028F9A0
:1028C000281C311CE2682369FEF7B0F80021351C92
:1028D000B961514BBA691B689B6A9A4215DABA69A9
:1028E0000A235343E0682A88C3181A806A88A91CFF
:1028F0005A80EA88281CDA80AA880E359A8007F068
:1029000011FAB9690131B961E3E73B69F9691A78EC
:10291000301C07F0E3FA39690870FA680B789546BD
:102920005A1E3C4D012A03D82A680021FC3251610D
:10293000032B09D0072B0DD0012B00D003E12B680E
:102940000022FC335A61FEE0F86907F02BFE041EFA
:102950000ED000E0182405F079F9304B1B681B6C91
:1029600018400123A3401840431E984140420440B0
:102970002A68131CFF33997D022908D1FC32526961
:10298000B868824203DD396908220A7000249A7D02
:10299000022A49D1DB7D5A0733D5182C31D1381C96
:1029A000283005F093F9FB69F8691A785B78BE8DD9
:1029B0001B0213438278FD8D12041343C278381C26
:1029C000120613431A882430BA845B88FB8407F00C
:1029D000D7F924217B5E9E4228DA3A8DB6189E42B2
:1029E00024DD2622BB5E9D4220DA7A8DAD189D4201
:1029F0001CDD012005F05CF9B88CF98C05F04CF970
:102A000093E0980710D51A2C0ED1012005F036F965
:102A10008BE0C04600000020C80200202C0B0020E4
:102A20000F050020FFFFFF7F002C7ED1494D2B6852
:102A30001A1CFF32917D0122022906D1191CFC319A
:102A40004969B868814200DC0022386901780829A8
:102A50005FD1D2B2002A5CD005F06AF900283AD0E2
:102A60000224381C221C3C49243008F00FF8381C82
:102A7000211C243005F0D0F9052005F0FDF9381CA3
:102A800000212022283008F043F8F96928220B7B26
:102A90002D21D3552923DC55CB5D7F2293432A205A
:102AA000C4551C4380235B421C43FB69CA19147044
:102AB0001A785B78F8691B0213438278391C120478
:102AC0001343C278283112061343002200930520D5
:102AD000131C05F0D7F903F03FF8012002F0FEFCCB
:102AE000796800240C702B68201C1A1CFC3254617D
:102AF0001461FF3301225A7505F0C0F8201C05F05F
:102B0000D7F81649A223201C221C0B7105F0F4F9FA
:102B10001BE0FC335A6912498A4201D001325A61E2
:102B200003F01AF802F002FF0FE028220221292305
:102B3000D019D155DC5505F06FF903F00DF80120DF
:102B400002F0CCFC01E0002412E77869BD4613B026
:102B5000F0BDC04600000020ACAC00000F05002016
:102B6000FFFFFF7F82B0F0B5DDB0002563936B46B9
:102B70000F1C05929D76061C02F086FA031CAC33EE
:102B80001B680CAC0390049305F046FEA0226B4634
:102B9000201C5200291CDD7607F0BAFF4C4B220A9C
:102BA0001C705A70220C240EDC704A4C9A702268F9
:102BB0009D74FF32937D022B10D1D27D1A420DD02D
:102BC000454BFA201B6880001B8F584303F01AFA0C
:102BD00002F084FC02F0A4FC02F0A8FE3F490020B1
:102BE000A223021C0B7105F087F93B78B34202D097
:102BF00005F0A6F83E70236800229A6005F0C2F93D
:102C0000041C02F077FEA04204D0201C02F077FEE4
:102C100004242FE0049A69466B461A311B33009254
:102C200001902B4A0598FFF735FD08AD041C281CC0
:102C300005F018F863AB19782B78062211401A407A
:102C4000914216D15A0715D502F000FA02F01CFA8B
:102C50002D7805F001F869468A8C4B8C12041A43D2
:102C60000B8DCF8C1B043B43291CFFF7ABFC07905B
:102C700000E00024174D1A4A2B689968914202D04F
:102C80009A6801329A60052C0CD104F0D7FF2A68AB
:102C90003423FF33D35C834206D104F0B9FFB04242
:102CA000ACD001E0042C05D0039B049AAC331A602D
:102CB00002F0A0FF6B461B331B78002B01D002F003
:102CC0004BFF201C5DB0F0BC08BC02B01847C046EA
:102CD000480B0020000000202C0B00200F050020D6
:102CE000FFFFFF7F70470000F0B5C94BA3B01C6821
:102CF00000AF65682168F86368004D436D002B1CC8
:102D00000833DB08DB006A46D21A9546B8632A1CF2
:102D100068460021FD61786307F0FAFE6268216869
:102D200095004A439200131C0A33DB08DB00684617
:102D3000C01A85466B460021FB6207F0E9FE636816
:102D400022689E005A439200131C0A33DB08DB0002
:102D50006846C01A85466B46FF21BB6107F0D8FE66
:102D6000F86B0021013878613963162810D80123E7
:102D7000A84A8340134206D1A74A134208D0A74B62
:102D80001B682E3302E0A54B1B6830331B783B6376
:102D9000BA6B3B6BAD085208B608013BFD60BA60E8
:102DA0003E617B627A6A013200D18BE07869022849
:102DB00004D9FB6B113B012B00D97FE0002002F00E
:102DC000FFFE934B964A1E6815683368BC6C7B64A3
:102DD0003B623B6A013BBB636DD37468013C611C81
:102DE00066D0B368396A6A694B43E31801339B00C4
:102DF0009858FB6B032B2AD004DC012B06D0022B46
:102E00000BD0EBE7FB6B113B012BE7D8E969A30083
:102E10005B58C01AC343DB171840BA6BFB68F96AEA
:102E20005343E3189B005958FA6A401898507B6A3C
:102E3000002BD3D1B96BBB684B43E3185B00396BF4
:102E4000BB6207F0B3FEBA6A7B6BD052C6E7B96BC0
:102E5000FB684B43F96AE21892005258BA62824208
:102E600000D2B862B96AFA6AE3189B009950BB6B4A
:102E70003A69B9695A43A3189B003A605A58944674
:102E8000824200D984463B68B869E11889006246ED
:102E90000A50B86A7F21831AFD2B01D85B0899B2CA
:102EA000BB68BA6B786B5343E3185B00195295E724
:102EB000BA6B3A628DE7B86BBC647864796A0139A1
:102EC00079626FE7524E1A2233681868596878623F
:102ED000B9631C690533DB7F381C00214C303B6231
:102EE00007F016FE7A6BFB69101CD518291CFA6BCB
:102EF00000F0C6F9F86B11286CDB12280BDD1328E3
:102F000068D10022786B291C03F00CFBBA6B0023FC
:102F1000FA633B6260E0F96B11290CD13368BA6B3C
:102F20005B68013A013B7B613C1C0023FA63483437
:102F3000BB6101200DE03368796A1B68BA6B013B05
:102F400001397B613C1C01237962FA634434BB6123
:102F500000203568F861296879647B6C591E3963F3
:102F60007964002B34D06A68BA64BA6C531EBB64AF
:102F7000002AF2D0386BB969BE684218F86842433B
:102F8000F869C1188A18F96A92005058396BFA68C2
:102F90004E434A4384469A18F86A920012582168B0
:102FA00078699E19760081420EDA6146FA208B1A02
:102FB0008000891858434910002900DC012107F0DE
:102FC00043FE7A6BB052D0E7786B00233352CCE7E4
:102FD0001C1C01E0B86BF863796ABB6B386A3D1C56
:102FE0006835FA6B2970AB70E870391C381C7E2389
:102FF0005B426A704C311A226E306B712C7107F093
:1030000045FD281C796B04F0ADFEBD4623B0F0BD34
:10301000C802002004004000030003002C0B002025
:1030200000000020F0B5474E85B000AF346839602D
:1030300001684068231CB860FE337960598B2069B1
:1030400007F058FE404B0D1C1B689A6951005A69E5
:1030500001324A43131C0833DB08DB006946C91AF6
:103060008D46F960081C002107F052FDA169F8683F
:10307000BA6805F03FFA341C01280DD13368FF33DC
:10308000D87602F02BFA02F051FC02F065FD002028
:1030900002F096FD33684BE02C4EF9683368B8684F
:1030A0005A7805F02FFB23680022FF33DA7602F00E
:1030B0003DFC02F051FD02F069FA012002F080FDB2
:1030C00002F0BCFBFDF7C4FD31682268CB78111C0F
:1030D000FE31498BC91AA94201DD9D422BDC1269E0
:1030E0009A4228DD05F054F83368426859688A42EC
:1030F00003DB9A6883689A4203DA236801228433E7
:103100001A70002D04D102F041FA281C02F058FD7B
:103110003368DB789D420ED123681A1C8432127802
:10312000002A04D17A685969106805F0F3F8236819
:10313000843300221A7039680523BD460B7005B030
:10314000F0BDC04600000020C8020020300B002067
:1031500008B504F0B1FC08BDF8B505F057FB3E4FCB
:10316000061C3C68206B642803DDA36BC3420CD5AE
:1031700026E0002826D1394BA26B1B6801251221BD
:103180005B5E9A421FDB051C1DE0C8281ADD5B0050
:103190000025C34217D5616C07F056FD0A2812DCE2
:1031A000E7239B00F358022B0DDD231C78331B789B
:1031B000AB4208D1231CF6331D786B425D4102E01F
:1031C000012500E000256834257005F01FFB3C68F0
:1031D000E36B1E2B31DC206B831EC62B2DD8616C5C
:1031E00007F032FD052828DC231CF6331B78002B62
:1031F00023D12379002B20D13423FF33E35C002B30
:103200001BD1E7239B00F358013B23D39A00DD2118
:10321000B218890052181268012AF5DCE16F002308
:10322000221D052905DD211C783101200870E36786
:1032300001E00131E167D3670CE0221DD16F00236B
:10324000052904DD211C78310B70D36701E00131C1
:10325000D167E367F8BDC04600000020300B0020B6
:1032600008B505F0B9FA054B1B681A1CFF325279F4
:10327000002A02D0683300221A7008BD0000002026
:103280007047000008B502F0B5FC02F039F801F013
:10329000D3FF01F087FF0F4B1B681A7A0E4B1B6898
:1032A000D033002A01D0022200E003220B491A6029
:1032B00000230B700A49A0220B700A49D2050B703B
:1032C0009363D36B3F218B43D36362B603F0BCF9A6
:1032D00008BDC046640B00206C000020290000508F
:1032E000280000502A00005038B5051CFDF752F8A0
:1032F000041CFF3405F070FA6379002B27D0144BBF
:1033000000221B68DB6A013B07D3190169180820FA
:10331000095E0029F7D10122F5E70E4B1968086B09
:103320000B1CFC33002810D1896B00290DD1002A19
:103330000CD0DA68FE2A01DC0132DA60DA68322A5F
:1033400005DD0022DA60627101E00022DA6038BD3A
:10335000C80200200000002070B5051C0C1C161CC3
:1033600004F022FD002802D001280AD023E00E201C
:103370004643AD19EA88FF23FE2A00D8D3B2637111
:1033800019E00E2070432818C288FF23FE2A00D8B7
:10339000D3B263710B220A238256C3560921D31A72
:1033A0000822415682568A1A934202DDA371E271C5
:1033B00001E0A271E37170BDF0B587B01D1C0CABCC
:1033C00003AC1B78161C00910C220021071C201C4A
:1033D000019307F09DFB0F236A1C1A4040210A430A
:1033E00022700122B25603201A4062703056728851
:1033F000318866780001334003436370019BA170FC
:10340000E270002B26D1227880235B421343237085
:103410003A7B01231A402378102112018B43134376
:103420002370BA88131C12B2FF2A00DDFF232A1C66
:10343000381C211C2371FFF78FFF009B04229A5E2A
:10344000074B1B685D195035002A01DD012300E0A0
:1034500000232B70201C04F0B7FC07B0F0BDC04661
:10346000D0020020F0B5AA4C93B023680B901B68E3
:10347000C82004914000FA215843890007F0E4FB7A
:103480000C9004F097FC23680126F5331B7809960D
:10349000002B65D09F4B049D1B680B9C9E689F6909
:1034A0000696DE6807961E6908965E690A960026EB
:1034B00009960596984B059E1B681B6A9E424FDA3B
:1034C0002B8811A803806B88438006F059FC0420E8
:1034D000235E002B3EDD238810AE33806388301CD2
:1034E000738006F04DFC0021735E069A9A420ADA58
:1034F0000798984207DD0221725E089E964202DA22
:103500000A9E964224DC04202A5E002A1DDD834A9E
:10351000059E12689020921980001218127952B2FA
:10352000012A12DD069EF21B9A420EDA079EF2195C
:103530009A420ADD10AB089E02201B5EF21B9A42E3
:1035400003DA0A9EF2199A4202DC0023A38001E00A
:1035500001260996059E0A35013605960E34A9E71F
:103560000B9E0024043605966B4B1B681B6A9C421D
:1035700000DB97E1049E11AD3388281C2B807388F3
:103580006B8006F0FDFB0E23059E6343043E079609
:10359000059E06930023F35E002B00DC23E10798D1
:1035A0000599038810AE023933800B88301C738074
:1035B0000A9106F0E5FB2B8832880D93574B0B924E
:1035C0001A6876881319191C50310E966D88087880
:1035D00053490F950968002801D1453100E0463173
:1035E000097808914F49575C002F04D0109806F0D5
:1035F00049FB071C03E0D626B6009B191F70474BFA
:10360000D6201D6880002B191B181B78012B0FD1A9
:10361000059E0227317A049E327A914200D1A9E0B8
:1036200000200093011C10AA231CFFF7C5FEA1E097
:10363000049EDC230422B25E9B00022F09D1002AE3
:1036400000DC97E0EB581B5D022B00D192E00327D2
:1036500090E0012F6AD1002A35DDEB581B5D5A1E20
:10366000012A48D8022B2ED0DA239B00EA5810AB4F
:103670000026995FA00012188C4603900021505E2E
:103680006646301A0226995F40438C460221535EFB
:103690006646F31A5B43244EC318B3422CDDDB238A
:1036A0009B00EB5803980C9E1B589E4224DDD923A7
:1036B0009B00E858069E0023009380190499231C60
:1036C000FFF77AFE17E0D9239B00E858069E07997A
:1036D00080190E2207F0DAF9DA239B00E858A600D9
:1036E0000422801910A907F0D1F9DB239B00EB58C5
:1036F00000229A5100E00327084BDB221968920050
:103700008A58A300D3181A6801321A6032E0C04602
:1037100000000020800B0020C8020020D002002002
:103720007C0B002046030000C4090000002F21D1BB
:10373000002A1FDDEB581B5D012B1BD1DB22920001
:10374000AA58A300D2580C9E964213DDD9229200AB
:10375000A858DA229200AA58069ED2188019049915
:10376000231C0097FFF728FE04F042FB04F016FA32
:1037700004F020FB049E0423F35E002B15DD0E9E57
:1037800032B20F9E33B2D31AD817089E1B1843408B
:10379000B3420ADA0B9E32B20D9E33B2D31AD81757
:1037A000089E1B184340B34216DB099E002E13D01F
:1037B000032F01D0002F0FD1002300930798231C63
:1037C000049910AAFFF7F8FD079E3388049E338002
:1037D0000A9E3388049E7380384B1A68DC239B0052
:1037E000D3581F554AE0049E0423F35E002B45DDA9
:1037F000324BDC221B6892009A58165D012E21D1B3
:10380000DB2189005958A20089580C9888421BDD99
:10381000D92189005858069900274018DA218900D3
:103820005B5804999A180097231CFFF7C5FD04F014
:10383000DFFA04F0B3F904F0BDFA0096381C391C25
:103840002A1C06E0022E07D0012300200093011C51
:1038500011AA231CFFF7B0FD059B049E043B1B88A7
:103860003380059B023B1B887380154B1A683623F7
:10387000FF33D15C002901D00021D154059E0134D1
:103880003388049EB380059E7388049EF380059E52
:10389000337A049E3372059E0E360596049E0A36D0
:1038A000049661E6054B1B689A6E191C5C310A7020
:1038B000DA6604F09DFA13B0F0BDC046D0020020D5
:1038C00000000020F0B5C44B9BB01B680027079395
:1038D000C24B0B901B6811911B6A04970393039CC6
:1038E0000E235C43039A051910940E952B1C0F9719
:1038F0000E3B013A0BD3D988049C8C4200DA049128
:103900000425595F0F9F8F42F2DA0F91F0E7B44C14
:10391000012123681A1C5232127891401A1C53322A
:1039200012785433891A1A788B1ADBB21393FCF786
:1039300031FD23680D901A1C383212780C92342213
:10394000FF32815C01291AD1A64B1B68F5331B7825
:103950000C93109B0B9D039C0E3BEB18013C0894B1
:1039600006931C1C039B079F8C20093380009B003F
:103970003A18089DD31804340A93059517E09A2243
:103980000D9F5200BA5C3933022AE2D1DFE7231FD0
:1039900000201B5EFF2B0EDD0027E35F002B15D1FF
:1039A000059F0A9D013F043D05970E3C0A95059F22
:1039B0000137ECD1CCE00021635E002BECDD362238
:1039C0000D9D0123FF32AB540C93E5E7844B0D9F13
:1039D0001B6834201A1C4732FF3015783A5C002AE5
:1039E00004D11A1C608802CA14330CE0012A0DD1DC
:1039F0007C4B88261B6876001A1CFC321169608893
:103A00009A192133FF3304F076FB061C0D9BFF331C
:103A10005A79734B002A05D01A68293212789642D7
:103A200000DA161C1A68131C48331B78002B01D1CE
:103A300064234AE06C48079F2B1C38181490417B84
:103A40001591002921D10025675F64217943079DE5
:103A5000CB2080008C4629181D1C7543AC4512DD17
:103A6000B74210DC8D68AC460125AC4467468F60D8
:103A70005C4F3F6880373F78BC4506D1149845734A
:103A8000159D8D6001E000208860079F56483D1815
:103A9000697B002913D00027E15FCB20079F8C466C
:103AA00080003918B44508DD88680C9F01308860B3
:103AB000B84204D10020687300E000208860079DB0
:103AC000494FE919497B0029B2D0079D8C27BF00D7
:103AD000E919059D4819057D0027E05F002D03D0F9
:103AE0000C9F6DB2BD4221DC642141437343994276
:103AF0000FDB131C44331B78049D61886B439B11BF
:103B0000994206DB136C0F9F7B439B11984200DBAD
:103B100046E70A9D079F8C20002380006380238056
:103B20002B603B185A68013A5A6039E728321278FC
:103B30002E4D724368435343984200DB30E70A9DA1
:103B40000023638023802B604B68013B4B6027E799
:103B5000079C8C25AD00089E631900225A609A19B3
:103B6000039F143205920A227A43119C109E0B9DEA
:103B7000A2180392AA190C3A0492089A089F6C3270
:103B800052009A1804320F92089A8C207432520014
:103B90009B18083310930C237B438000079C1B1851
:103BA000E3180993089F013700D1CCE20E9E0E9DC9
:103BB0000A3E0027F35F0E3D0B950A96059C002BED
:103BC00000D144E223780C9A0133DBB259B20632B9
:103BD00091420DDC23700FE0D0020020C8020020CB
:103BE0007C0B0020800B00202F030000102700001A
:103BF0000C9B059D04332B70059E0023F356012B6F
:103C000009D1069F039B3A880A3B049C1A80039BB8
:103C10002288083B1A80059E00257557012D65DD19
:103C2000A81C032107F066F8039CCFB212970A3C48
:103C3000022D45D1924B039D1868924B0021625E84
:103C400019680368083D9C460026AB5F4E69096908
:103C500040684910511ACF170138C919000279403C
:103C6000401A7F280ADD76109E1BF0176746013F39
:103C700036183F024640BF1B7F2F11DC069E049F73
:103C80000020305E0021795E801AC91A05F05EFAC4
:103C90000B2805D92388069C23802B88049D2B8024
:103CA0000323013B1CD3099F069E5A00BA18308893
:103CB000111C5A31049C0880218860321180F0E781
:103CC000089D06236B43079EC91822886E4B490046
:103CD0007118CA52039B083B1A88A4239B00CA523E
:103CE000069F049C3F88248819971894674B1B688B
:103CF0001A1C9C321178012923D19D331B78089D11
:103D00009D421EDA0D9BF6331B88002B19D10D9BAB
:103D1000DE331B78002B14D1D4216943594B059E07
:103D20001B68883159180023F3560092584A0B98A3
:103D30001268383212780192039A0A3A00F0DAFCDB
:103D40006CE1059F00257D57012D00DC66E1032D08
:103D500000DC3EE1089C06266643129F4A48BC19D7
:103D6000079F64003C19205A0321119012980430D7
:103D700006F0C0FF89194900A42379189B00E05A76
:103D8000414ACB5A8F5A14909C46042D16D1039B5E
:103D9000069D0A3B0020285E00215B5E049DC01A40
:103DA000039BC2178018083B504000215B5E002235
:103DB000AA5ED31ADA179B18534013E0069D002021
:103DC000285E0F9D0023EB5E049DC01A0022AA5EB0
:103DD000109DC1170023EB5E4018D31A4840D91735
:103DE0005B184B400899079D2A4AC0186B189B180E
:103DF0001978274A002906D011685A310988884263
:103E000008DC002105E011685C310988884201DB8B
:103E1000012119701B78002B3ED112688021131CE0
:103E20005832128856331B8800924A0004F052F927
:103E3000154F069D061C0021695EE05F049F0B1A6A
:103E4000DD175A196A4000257D5FA427BF009446FC
:103E5000E25FAD1AEA17AD18554065442B1C321CC1
:103E600006F01AF8069B321C1880E05F049C2B1C9D
:103E70000021615E06F010F8049D288085E0C046B0
:103E8000C8020020D00200208A020000800B00201F
:103E90007C0B002002030000119C149DA1B2CF1BDB
:103EA0003FB2FB0FDF197F10AAB215976746D31BED
:103EB0001BB2069CDD0FEB180025645F049F5B10AE
:103EC0000B94159C169300203F5E0B190B9D169CBE
:103ED00017971BB2EB1A1219179DDF1712B2DB19D5
:103EE000AA1A7B40D717D2197A409B180024802B3E
:103EF00001DD1C1C803C12980321053006F0FAFEFF
:103F0000924B119A1F68079D89193B1C5333490036
:103F10001E78691810B25D788D4A139B58438B5EEA
:103F20007343C0180B9B6B43C0183B1C52331A7869
:103F300055371041119014983B7807B213984743B6
:103F4000A4208000095E4E43BE19179F16997D4339
:103F50007519159E59437343119F11411341154122
:103F60008022F8186D18231C0B99D20005F094FFDD
:103F7000069E049F30808022231C0021795E281C2D
:103F8000D20005F089FF049C2080039B0A9E063B1B
:103F90000021715E0025585F6C4D431A2F68DC17B5
:103FA0001B1963403C22BA5E05F076FF0A9E039B14
:103FB0000E9C3080043B083C188821882B683C27E5
:103FC000DA5F431ADD175B196B4005F065FF20804F
:103FD00024E036230D9EFF33F25C039B0A3B002A4C
:103FE00008D01B88069F049C3B80039B083B1B88D2
:103FF000238013E0069D00269B5F0022AA5E069F99
:10400000D3185B103B80039B049C083B0022A25EFC
:1040100000255B5F049ED3185B103380059F002250
:10402000BA560C9CA24200DC88E00A9D0023EB5E9D
:10403000002B66DD039B063B00269B5F002B60DDAB
:10404000199C0F9F189E109D3C802E8059E00022E5
:10405000A2560C9DAA4230DD0399063900268A5FDC
:10406000002A32D0079F8C208000089D3A185419EE
:10407000A07F0130C0B2A077344C40B224683A34FB
:104080002478A04202DD059E33701EE0039B069F4C
:104090000A3B1B88049C3B80039B0A9D083B1B88B2
:1040A00023800B882B80039B043B19880E9B083BC5
:1040B000198053680133536007E0079F089C254D22
:1040C000059E3A19521933701370089E059F013EE0
:1040D000039C069D08960E9E013F0A3C0E3D0E3E37
:1040E00005970394049F0F9C06950E96109D099EBC
:1040F0000E3F023C023D0C3E04970F94109509962A
:1041000050E5079C8C25AD00631959680131596051
:104110000E4B1B6838331B789A4201DA059F3B70BF
:104120009A230D9C00225B00E254079D8C26B6006A
:10413000089FAB19DB1900229A77C6E701230A9E74
:104140005B423380F1E71BB0F0BDC0467C0B002022
:104150008A0200000203000008B5FFF7B3FB08BDA8
:10416000F0B591B0069008910B920D9300244C4B42
:104170001B68DB6A9C4200DB8FE0069F2301FB1873
:1041800008201B5E002B00D185E0089FA300FB18D0
:104190000327DF5709979B78013F5BB20793059789
:1041A000099F059801370A97B84274DC079E013EC3
:1041B000079B01339E426BDC394B059A196801322B
:1041C00088680B9F4243531C9B19FD5C0490013D82
:1041D0005CD3C96A8D4259DAAC4257D03149169F37
:1041E0005B000868DB5B011C0C93FF314979089F79
:1041F0008C46A300DB5F67462B49002F0BD034278A
:10420000BC46FF27BC446746C05D002803D109684F
:10421000498E490801E00968498E59430C98891173
:10422000834233DC079FD2190132169F5200D35BC1
:1042300099422BDA0A9B04984343F31801335B003D
:10424000DB5B994222DAA54202DB2B1C251C1C1CDD
:10425000069A21010FAF51180A310422381C06F0CA
:1042600015FC069B29015918381C0A3104F086FBFD
:1042700000970B9F231C01970D9F06980297169F8E
:10428000089903972A1C04F097FB2C1C02368FE731
:10429000059F023783E7013469E711B0F0BDC046DE
:1042A000C8020020000000207C0B0020F0B5974BD6
:1042B00091B00A9200221A80954B0F901B68072537
:1042C0001A7B0C1C0895062A00D80892914A12689D
:1042D00078321278002A05D11E7A07960A201F5ECE
:1042E000069706E08C4B1B681D7A07950A27DE5F50
:1042F00006968A4D8A492B680A9F5A6818684A7040
:104300009A6804238A70013292000870CB70BA1840
:10431000512302200B7103F0EFFD0022A31D7C4806
:10432000DA770233DA777F26631D0068DE77296843
:10433000E31DDE7704907B484B680068013BDBB2ED
:104340000D9079480C930B680568013B5BB2AC4655
:1043500005920292002B00DAA0E00C9E5F0072B280
:104360000997002A00DA97E088685D1C4543049E9F
:104370000135AD18A800009537780A9D4E68405960
:10438000002F0AD0351C5D430D9FBF187F5D654629
:10439000039747432869784300135E43169F961995
:1043A000B600F6590F9F360C301A009E7500E85380
:1043B000851D04DA554D2E8801362E8057E00028E1
:1043C00055DB049E0E257557A84213DB2768451B55
:1043D0007D19256065690F2701356561F757351C23
:1043E0000E26AE576568B84201DC861B00E0BE1B96
:1043F000AE196660E668B04204DDD7B2DDB20E9752
:104400000B95E060089EB0421BDB251C08351F267B
:10441000AE57964200DAEA77E51D1F26AE57964260
:1044200000DDEA77A51D1F26AE579E4200DAEB7726
:10443000651D1F26AE579E4200DDEB77059F0137B5
:10444000059785B2189F56000195BD5B019F7D19A8
:104450002F1C189DAF53179D099EAF5B019EF51948
:10446000179F099EBD53029F3F18029712E0049EBA
:1044700010257557A84206DCA768451B7D19A56065
:10448000A5690135A5612569A84200DA2061029E6F
:10449000361A0296013A64E7013B5BE71F4B02982C
:1044A0001B680125D96806F0CFFB20497C235B42BD
:1044B000221CCB70E06176231C32281C0B714D70DE
:1044C00003F01AFD059FA21D27621F21631D51568F
:1044D0001F229A56144B1B68914201DB1D7301E0A9
:1044E00000221A730E9D231C0B9E28331D705E70D4
:1044F000E768079D0120AF4205DA2369069ED80FC1
:10450000F2179E425041C0B211B0F0BD2404002009
:10451000700B002000000020780B0020C802002053
:1045200008050020740B0020CC020020740000203D
:104530000B4B09681A683423FF33D35C094A1268AD
:10454000507B48438011002B01D1137B04E0012BE9
:1045500005D1054B1B68DB79984200DA181C7047BF
:1045600000000020700B0020780B0020F0B595B003
:104570000C1C1E1C0B92069003F0FEFD5A4F089077
:104580003A68032151562020411A02201056490052
:10459000091A4910554DC9B205912B68907A1978BE
:1045A0001B790090D27A05980192029072681A984D
:1045B00006F086F838682B687268067A19791B78D5
:1045C0000096407A059E019002961B9806F078F8B6
:1045D000002118220EA806F09BFAA3687F22180A71
:1045E000190C00260D932272A27240B25AB249B23F
:1045F0001B162F686672E672059007910993049660
:104600000598824252DC1A9D5300EB180A93079BCF
:10461000099E501CB34247DCB9680B9D41435918B1
:1046200001314E00755F5900AC461B9D6646691806
:104630000989761A0A99B4460E896546A91B089E0F
:10464000367BB14213DD0B2565579D4200DAE372DC
:104650000A2565579D4200DDA372092565579542DD
:1046600000DA627208256557954200DD2272CD1F7F
:10467000072D08D80EADED5C0126AC46B444664665
:104680000EADEE5401E0002904DD049D8D4202DAF6
:10469000049100E00021BE68069D704318180130A7
:1046A000800041510133B3E7021CA9E70DA80EA910
:1046B000069A00F0C1FB0D4E0D493368049D5A68FF
:1046C000256018684A709A68069D8A707C230132BA
:1046D0005B4292000870CB70AA18832305200B71EF
:1046E00003F00AFC15B0F0BD840B0020C8020020C6
:1046F00008050020F0B5E5B014926AAA20CA0D9012
:104700001278281C19920A1C0491D0324830117872
:104710000078884201D301311170CE4A0D9F16688E
:104720000022BA5EB06F0D9D42431214179202220E
:10473000AA5EF76F7A4312141892012B39D1049AAA
:104740000021D1321170049AD0321370049B179D4E
:10475000189F002201311D60DF605A601A619A6063
:104760005A619A61DA611A625A629A62DA62343381
:104770000429ECD16A9B049D9A8C22332A63DA883F
:104780006A6659892A1C98321160D98951631A883E
:10479000291CAA619A880431EA64AA651A89CA6741
:1047A00088310A608A609B892A1CB4321360D36006
:1047B00053616A9D002402351A941B940395039D4E
:1047C000A20000235219181C1A255D43049FD15AD8
:1047D0007D192D6B023369434018082BF4D1FA215F
:1047E000890006F0E3F9682109196A460234885203
:1047F000082CE4D11CA80021102206F089F900251C
:1048000034236B43049F20A8FB181B6B039F069364
:10481000EB00FB182F0107933F1800240799069A15
:10482000085B68231B1950436A46995A06F0BEF983
:1048300063001CAA9958F850023408189850082CA4
:10484000ECD10135042DDBD1D02230A8002106F0B7
:104850005FF9149DB76F0023EB5E149D7B431B141F
:1048600030930223EB5EF26F012653431B14339304
:104870003DAC21AF03960023049A079306931E1CB8
:10488000181CF95815684D434019D5684D437619E1
:1048900055684D43069949190691FD581169103321
:1048A0006943079D34326D180795402BE9D1039D6C
:1048B0001CAAAB009D58291C06F0C6F9291C2060D3
:1048C000301C06F0C1F9291CE060069806F0BCF91E
:1048D000291C6060079806F0B7F9039E2061012E3D
:1048E00019D00023049A0593181CFE5891681033C0
:1048F00071434018516934327143059E761805960C
:10490000402BF2D1291C06F09FF9291CA0600598C4
:1049100006F09AF96061039D34340135039504373C
:10492000042DA8D138AC0025A80020A984460A1C73
:10493000624400230992049A0A930893079306930A
:104940000393181C099ED769F15896694F434E434B
:104950008019039E1033F619176A03964F43069E7B
:10496000F619576A06964F43079EF619976A0796F7
:104970004F43089EF619D76A089679430A9E343247
:1049800076180A96402BDDD167461CABFE58271CD3
:10499000311C06F059F9083F3860002D1BD0311C3E
:1049A000039806F051F9271F3860311C079806F06C
:1049B0004BF96060012D0ED0311C069806F044F9C9
:1049C000311C2060089806F03FF9311CA0600A985D
:1049D00006F03AF9E06001353434042DA4D1049B8B
:1049E000002130AA8D58521856689768D0681D600B
:1049F0005E60156956699F609769D8601D615E6148
:104A00009F61D069156A566A976AD26A3431D86153
:104A10001D625E629F62DA623433D029E1D1049C68
:104A20000026251C0835069507966A9B079F32339A
:104A3000022F0BD0032F0FD0012F03D01D789A889F
:104A4000DB880CE05D781A895B8908E09D789A899B
:104A5000DB8904E0D0020020DD781A8A5B8A9C465C
:104A6000012D60D0002D4DD0022D79D1069E6068B9
:104A7000366827680111C9198019069F0F902069AF
:104A80007F68089673116669CB180111C9191193D3
:104A90007311CB181293A36A80190A96DE0F109037
:104AA000F618E06A76100596C10F266A09184910B3
:104AB000F7187F180397A069E7693E18206AC70FA7
:104AC0003F187F10F719E669606ABF193F1805980B
:104AD0003E180398C70F3F187F10606AF719E66900
:104AE000361805983618206A3618F018666A401885
:104AF0000590F118E06AC91809181B180E9186185C
:104B0000139339E0069F26687F68A0691196129773
:104B10002E1C171813950E95039505950A9510955B
:104B200008950F9528E0666827683311DB19069F02
:104B30000F9626697F6811933311DB19E069129390
:104B4000A369616A4700FF18401810967F18002675
:104B5000891805900E91139603960A9608960BE015
:104B6000002613960E9603960596371C0A96109605
:104B7000129608960F9611961298189B119A1B1A66
:104B80000B93FB171B0F1799DB191B116344891A31
:104B90000991B801191C0C9306F056F8059A0C9966
:104BA0001590900106F050F8039B0C99169098010F
:104BB00006F04AF81199099B8A0215994B43D318BC
:104BC0009B1223600F9B16999A01099B4B43D318A4
:104BD0001B019B126360089B06999A01099B434342
:104BE000D3181B019B120B60129B15999A020B9B09
:104BF0004B43D318069A9B125360109B16999A0147
:104C00000B9B4B43D3181B019B1223610A9B9A01F8
:104C10000B9B4343D3181B019B126361802315999F
:104C2000DB00591A0B1C7B43DA17920DD3189B1229
:104C30008C46A361002D05D1E56125626562A56200
:104C4000E56234E0059B4B43DA17920DD3189B12B3
:104C5000E361169B059A5F427A430E9B99025218B4
:104C6000D3179B0D9A1892126262022D1BD1039DDD
:104C700061464D43EB179B0D5D19AD122562039DF7
:104C8000B6026F43139DAB02FF18FB179B0DDF1994
:104C9000BF12A762039F7843301AC617B60D3018AB
:104CA0008012E06203E000232362A362E362099AB8
:104CB0000B9B52435B43D318584A934205DC642054
:104CC00058430C9905F0C0FF00E05548554B46107D
:104CD000554D01209E421BDC301C291C05F0B4FF01
:104CE000291C421C5143771AFB17FF185F404F4B9A
:104CF0004000C05A520078434D4FC919761AF11737
:104D000076184E40D15A4E43291C801905F09CFF5D
:104D100068430C9905F098FF079F069DBE0030ABD5
:104D200001373435F050079734340695042F00D0FE
:104D30007BE60024251C68266100361930AA6F46E0
:104D4000F35B8858049E58431A236343FA21F318EF
:104D50001863890005F02AFF02344519082CEAD1AE
:104D60000024049F291C3E19306B05F01FFF00280A
:104D700001D0306301E0012333633434D02CF0D10F
:104D80000024049B251C211C201C1A6B1E68013169
:104D900056433018DE681419564334337519042904
:104DA000F3D1211C05F050FF211C061C281C05F026
:104DB0004BFF049D199A2B1CD033197801322C6BB0
:104DC000013391420CDD1A78002A15D16A9A4632D5
:104DD00095788D4210D3128894420DDB012200E0B9
:104DE000002200211970012A08D1149E0D9F3388DA
:104DF0003B8073887B800EE001221A700D4B0D9F63
:104E00001B681A1D0833D26FDB6F564358433614A4
:104E100000143E80788065B0F0BDC04614AE4701F6
:104E2000FFFFFF7F6F11010010270000AEAC0000F4
:104E3000F0D8FFFFD0020020F0B54D4B91B000AF8D
:104E40007962196884464B680868BB63434307333B
:104E5000DB08DB006C46E41AA5466E463863FE624A
:104E60006046C078634640B238629B785BB2BB62F2
:104E70001E1C3D6AAE4254DC7C6AA35D082B4ED9F1
:104E80006546012028560023EB56F861B86BFC6A92
:104E90005843301820187863FC69A3423FDC06248D
:104EA000002B09D0886858438019800014581018C6
:104EB000456880686419241888680133786158430C
:104EC00080198000155810186419F8603D6B8068CF
:104ED000013DB86020185C1EAC4211D07C695D1C9D
:104EE0006543AD19AD00BD6155594019F863B86906
:104EF000FC6B15186868AD682418FC63641900E041
:104F0000841DF86845680320684304190D20444354
:104F10007D6BB86B24122C702D187D63BCE70136B5
:104F2000A7E7BB6A64460320205683421DDC7E6AE5
:104F3000F05C082817D9644600202056BC6BFD6A37
:104F400044431C192C19664601257557A8420ADCF2
:104F50008D68013045435D1926780135AD00AE50AE
:104F6000BE6BA419EFE70133DCE7BD4611B0F0BD1D
:104F7000C8020020F0B5304F85B0019038680A1C97
:104F8000031CFF3302909E7D0B1C143303930023FC
:104F9000022E2AD1029CFF34E47D344225D01478BD
:104FA000012C07D10D7D651BE8172D184540072DF5
:104FB0000DD108E0052C12D10D7D641BE0172418DB
:104FC0004440012C07D1541A0E2C12DD13E0557801
:104FD000002D06D00DE05478002C0CD009E0022CF6
:104FE00007D0033C012C06D803E010780C7DA042CA
:104FF00001D00133DBB2039D0132AA42C8D10022A5
:10500000022B15D80198012303700B7D591EC9B2DC
:10501000062901D8094A525C3868FF30817D02298F
:1050200006D1C07D084203D0063B022B00D81A22CD
:10503000101C05B0F0BDC04600000020BEAC000052
:10504000014B18607047C046640B0020014B186884
:105050007047C046640B0020014B18607047C04683
:10506000600B0020014B18687047C046600B0020A1
:10507000014B18607047C0465C0B0020014B18685C
:105080007047C0465C0B0020014B18687047C04653
:105090006C0000200B4B70B519680B685D1E0FD3B8
:1050A0004A68013A0AD38E68541C5E43A419064E1E
:1050B000A400A4192668C6402660F2E72B1CEDE781
:1050C00070BDC046C8020020004000508D23013B47
:1050D000002B01D0C046FAE7044B10221B78DBB24C
:1050E0001807C00F134018437047C0462B000050EC
:1050F0000F4BF7B518261E700E4BA0271E70FFF73A
:10510000E5FFFF050B4B01AC00252C3760701D70CF
:105110003E70FFF7DBFF064B20703D701D7023785B
:105120006278181C5040400013400343D8B2FEBDC3
:105130002A0000502D00005010B50D4B00201B78A8
:10514000AA2B12D10B4B1C780B4B64B218780B4B6B
:1051500040B219780A4B20181A780A4B49B21B78CA
:1051600040188018C01A43425841C0B210BDC04612
:1051700050000200510002005200020053000200E1
:1051800054000200550002008023DB020022188038
:1051900059809A80C046024B188880B27047C0463A
:1051A00006000400154BC022920098581449014093
:1051B00099509958FF2081434020014399509858B5
:1051C00010490140802000040143995098588021E3
:1051D0000002000A09060143995002221A600122C6
:1051E0001A60082104221A601960FC3300215960FA
:1051F000054B19690A431A617047C04600E100E097
:10520000FF00FFFFFFFF00FF00ED00E013B5094ABC
:10521000042413780021DBB21C4301910198F4218E
:10522000FF31884205DC1370C046147001990131CA
:10523000F3E713BD0D00005013B500220192A02228
:10524000D205D06BC021C9000143D16301AB1878EE
:1052500003218843012108430C24A0430424204354
:105260003024A043102420433F24204040242043E6
:10527000187098780F24A043072420439870D8789A
:105280000143D970019B936113BD00000122A0234B
:10529000DB051040020603499869084010439861F5
:1052A0007047C046FFFFFFFE82B00022019201302E
:1052B0001F2201AB1040C9B21870481C02311040C7
:1052C0000A4092005870DA70019AA023DB05DA6177
:1052D000196A024A0A401A6202B07047FFCFFFFF04
:1052E0000002064B000A0138002258609A6005222D
:1052F0001A60C0461A68D103FCD5704710E000E080
:10530000F0B5534F85B03B681A1C30321578023225
:10531000196B127833331E780F231407994312093F
:105320002D0701922D0F0B1C80222B43520013439B
:10533000484A0395484D1340484A2B40484913407A
:10534000240F0B400199220413430A0545493607EF
:10535000360F0B40009613433206434E02943340FF
:105360001343424AA024E4051340E360FFF74EFFD5
:105370003B68E26831331B781540DB069B0FDB028C
:105380001D43E560E26880239B001343E360E2680D
:1053900080239B011343E360029C039DFFF7CCFE37
:1053A000002813D0324F882039781E34C9B205F056
:1053B0004BFC39784443C9B2882005F045FC0F35D1
:1053C00045431E3C00230F3D9C4203DB231E0F2B55
:1053D00000DD0F230F22954200DD151CA024E405FB
:1053E0001F491A40E36812040B401343E360EB4388
:1053F000E268DB171D400F239A431D401543E5600B
:10540000E368F022934380221343E360E368154A84
:1054100018481340E360E3683340E360FFF760FF40
:10542000E26880235B051343E3600099E2680B06A2
:1054300016401E43E6601048FFF752FF019B0949E2
:105440001A05E3680B401343E36005B0F0BDC046A6
:10545000600B0020FFF9FFFFFFE7FFFFFFDFFFFF0B
:10546000FFFFF0FFFFFF0FFFFFFFFFF0FFFFFFEF6A
:1054700054000200FF0F0000FF6F0000064A074BB8
:1054800012680120D032126819789040021C0A4339
:10549000D2B21A707047C0466C000020290000503C
:1054A0000549064B09681A78D031096801208840FF
:1054B00082431A707047C0466C00002029000050DB
:1054C000044B1878044B1B68D0331B681841012328
:1054D00018407047290000506C000020044B82B037
:1054E000019001AA188092789A7002B07047C04665
:1054F0002400005007B500F061FD064B019001AAA1
:10550000188092789A70044B00221A70034B012283
:10551000DA7707BD24000050200B0020080000505F
:10552000034B00221A70034B0122DA777047C04602
:10553000200B00200800005072B6084B1B5C002BAB
:1055400003D1C04662B630BFF6E762B6A023DB05E2
:105550009968034A0A409A607047C046200B0020B1
:10556000FFFFF9FF72B6074B1B5C002B02D1C04650
:1055700062B6F7E762B6A023DB059968024A0A40E3
:105580009A607047200B0020FFFFF9FFA023DB0586
:105590005A680121120E58689143034A09060240D5
:1055A0000A435A607047C046FFFFFFFE08B5074B2D
:1055B0001B681A1C3732127838331B7852000132BC
:1055C0005043994005F040FB08BDC046600B0020E9
:1055D00008B5044B1B683A33197849000131FFF7CD
:1055E000E5FF08BD600B002008B5A0230120DB0506
:1055F0005870FFF7A1FFFFF7C9FF08BDF7B5A02658
:10560000041CF605042808D005280ED15A4B1B6847
:105610001A1C8C321768903305E0574B1B681A1C14
:105620009432176898331B6821E0544B1B685F6AFB
:105630009B6A7361FAF7AEFEF7300378002B17D040
:1056400005F000FA05F036F981787F2211408904CF
:10565000019171690B1C4A490B4001991943716111
:10566000C178474B0A40716992040B401343736140
:10567000A023DB051F611E691F231E40FFF75CFD91
:1056800000280AD03F4B882019780436C9B205F0AB
:10569000DBFA46430023043E03D4331E1F2B00DDF8
:1056A0001F23A022D20510691F210B40884303430A
:1056B0001361032C34D005DC012C2DD013DC002C1D
:1056C00011D030E0052C0AD005DB062C2BD12A4B5B
:1056D0001D68A23527E0284B1D689C3523E0264B2A
:1056E0001D689F351FE0FAF755FE031CDE331B785B
:1056F000002B03D0204B1D683B3514E0F7300378B6
:10570000002B05D005F09EF905F0D4F8051D0AE040
:105710001A4B1D68363506E0184B1D68393502E016
:10572000164B1D683C35A023DB05596928783F22BC
:10573000104091430143596168781F215D69084019
:105740001149C002294001435961104964000968A8
:105750000C19211C8231087859681040914301438B
:1057600059608334217858680A401102084A02407F
:105770000A435A60F7BDC046640B0020600B00204E
:10578000FFFF03FE54000200FF07FFFF6C00002034
:10579000FFC0FFFF244BF7B51A68244B1B68393351
:1057A0001B785B069B0E0193131C31331978002381
:1057B0008D005519581E5B18002B27D053181B1845
:1057C00032331B788024D3185E78A023DB055F6812
:1057D000E4033C435C60019CB606240400945F68CB
:1057E000B60EBC46124F64462740009C27435F60BC
:1057F000C046243676008400F65A2C19B034266050
:105800005E680C4C34405C60031CD3E7131C3133DE
:1058100009491B780F204B700423CB70B023D2189A
:105820000B7102F069FBF7BD6C000020600B0020DB
:10583000FFFFC0FFFFFFBFFF74000020F7B5FFF7B9
:10584000A9FF124B00241D682B1C31331E78731CDA
:105850009B005B420093B300EB180193009B043C58
:105860009C4208D0019B01211F19B0373868FFF70F
:105870009DFE3860F2E706490423CB70B023EA1896
:105880000F204E700B7102F037FBF7BD6C0000204B
:1058900074000020044B00225A70A023DB055A70CC
:1058A00001221A707047C046200B0020A023DB05A0
:1058B0009968064A0A40802189020A439A60044A8C
:1058C0000021917001229A707047C046FFFFF9FFD6
:1058D000200B0020024B1B68A83318687047C04695
:1058E0006C000020024B1B68A83318607047C0464C
:1058F0006C000020A023DB059868C0B2704730B56B
:10590000A023DB059B68DBB283420ED001DA0133B2
:1059100000E0013BA022D2059568FF211C1C8D43AD
:105920000C40291C21439160EEE730BD08B50020F2
:10593000FFF702FE08BD0000034B1B6837331878E1
:10594000400001307047C046600B0020024B1B68CE
:10595000383318787047C046600B00200048704705
:105960000010005000487047002000500048704769
:1059700000400050064A074B12681B687D321078C1
:105980009B6801385843044B8000C0187047C046DC
:105990006C000020C802002000400050054B1A682F
:1059A000054B90681B6879331B785843034B800084
:1059B000C0187047C80200206C000020044000504E
:1059C000F0B585B000AFFAF7E5FC5D4B1988031C14
:1059D000DC331A888A181A805A4B1B681A78BB6005
:1059E00053B2042B24D1584B1B689E331B78FB60A9
:1059F000FFF7C0FF554B02221968531E9C4600D288
:105A00009AE04B68013B11D38C6854430134E5188C
:105A1000AD007D60BD68EE183A363678FD68A41991
:105A2000A4002458EC407D682C50EBE76246E4E784
:105A3000052B23D1444B1B68A1331B78FB60FFF778
:105A400099FF424B04221968531E9C4674D34B683D
:105A5000013B11D38C6854430134E518AD007D60DF
:105A6000BD68EE1852363678FD68A419A400245893
:105A7000EC407D682C50EBE76246E5E7002A45D014
:105A8000022B0BD1DE300378002B03D02E4B1B688A
:105A90003D3338E02E4B1B68383334E0032B03D101
:105AA0002B4B1B683E332EE0012B27D16D467D60CA
:105AB000FFF774FF254B061C1B6868465C68A50051
:105AC0002B1C0A33DB08DB00C01A85466B46FB60E3
:105AD000013C0BD3B86803193A331B789B009859E3
