:10000000000800201D0300000000000000000000A8
:1000100000000000000000000000000000000000E0
:1000200000000000000000000000000000000000D0
:10003000000000000000000000000000DD010000E2
:100040002902000000000000000000000000000085
:10005000E1010000000000000000000000000000BE
:10006000F901000000000000000000000000000096
:10007000000000000000000000000000002934D053
:100080000123002210B488422CD301242407A1426A
:1000900004D2814202D209011B01F8E7E400A14227
:1000A00004D2814202D249005B00F8E7884201D3C2
:1000B000401A1A434C08A04202D3001B5C0822439A
:1000C0008C08A04202D3001B9C082243CC08A0420B
:1000D00002D3001BDC082243002803D01B0901D0F7
:1000E0000909E3E7101C10BC7047002801D000206C
:1000F000C04307B4024802A14018029003BDC046A5
:10010000D90000000029F0D003B5FFF7B9FF0EBCFD
:100110004243891A1847C046002941D010B4041C34
:100120004C40A44601230022002900D54942002862
:1001300000D5404288422CD301242407A14204D296
:10014000814202D209011B01F8E7E400A14204D276
:10015000814202D249005B00F8E7884201D3401A8D
:100160001A434C08A04202D3001B5C0822438C08AF
:10017000A04202D3001B9C082243CC08A04202D319
:10018000001BDC082243002803D01B0901D0090909
:10019000E3E7101C6446002C00D5404210BC7047B9
:1001A000002806D003DB0020C043400801E0802087
:1001B000000607B4024802A14018029003BDC046E1
:1001C000190000000029EBD003B5FFF7A7FF0EBC14
:1001D0004243891A1847C0467047C046FEE70000F0
:1001E000034B01221A71034B00211970DA6070472A
:1001F000AC03002000000850084B0120084AC02131
:100200001872890500230B710B721375054A923120
:10021000537153735375537708707047AC030020C4
:1002200000001050C000003038B5A025ED05EB7D72
:10023000DBB2022B16D005D8012B4AD1284B002265
:100240001A6046E0042B1AD0082B42D1244900231F
:10025000CB600B602A6A52BA0A61081D083102F0AD
:1002600071FD36E01E4B5968002932D01A68986833
:1002700082422EDA501C18602B6A8B5429E0184CED
:100280006368002B24D0E268A1688A4209DA9B5C8B
:100290006B6223699A1890B202F09EFDE368013305
:1002A00013E02369211CD218201D083102F04AFDF9
:1002B0006368002B0BD02169E2681B7888182061E5
:1002C0006B6280B202F088FD0123E36001E0237CD1
:1002D0006B62A023DB0501221A73C0465A7338BD36
:1002E000D8020020A023DB050122492110B55A7451
:1002F000D970002119720221DA7299710F215A7195
:100300001A715972044BC02189005858FF24A04328
:1003100058501A6010BDC04600E100E0F8B5002357
:10032000414A42499A188A4204D24149C958043381
:100330001160F5E73F4B404A191D043B934203D23D
:1003400000221A600B1CF6E7EFF308823B4B191DE5
:10035000043B9A4203D93A4818600B1CF7E7FFF7B1
:10036000C1FF38493848043901F0D4FA374C85B216
:1003700001235B42281C23716371A371E37102F0B6
:100380009BFC33490A1C0B1C3D323C3312781B7812
:1003900012021A43231C954243D12E4A2E4C158833
:1003A0002E48A5420BD04E7D15880A7D3602324379
:1003B000954204D1028892B21A71120A5A710288C7
:1003C000A2421BD0CE7D8D7D028836023543AA42E3
:1003D00014D100250422013AD2B2FF2A07D0204EC0
:1003E0008F18B65C3F79B742F5D10125F3E7002DB0
:1003F00004D0028892B29A71120ADA715A79197984
:1004000012020A43A2420CD0DA799979124B1202F5
:100410000A439A4205D0134B1B781C2B01D100F0E4
:100420004DF962B6FEE7C04600000020D802002069
:100430004C340000DC020020A5030020EC03002067
:10044000CDCDCDCD0040000000000000BA0300205B
:10045000C03F0000D03D0000FFFF0000BE3F000095
:10046000D43D000081001050014B18607047C04619
:10047000C4030020014B18687047C046C403002025
:10048000014B18607047C046C8030020014B186834
:100490007047C0460000002038B5094C256801F0BF
:1004A000F5FDE860256801F0F7FD064A286112684D
:1004B00023681178044A1268127C4A43DA8038BDF6
:1004C00000000020C8030020C4030020F8B500AFDE
:1004D00001F0CCF986B06C46102286B00021201CB9
:1004E00002F083FF0020032101F070FC0120011CB9
:1004F00001F06CFC1B4E6D4631680C23CA68D25863
:10050000EA50043B181DF9D102F0A8FA0B2826D1B5
:100510000020032101F05AFC0120011C01F056FCCF
:1005200031680C23C868C258E858821AE0589042D3
:1005300000DAE250043B1A1DF4D10B497F20CA783F
:10054000042382434B701343802252421343CB70E7
:1005500001205223221C0B7102F072FBD4E7BD462E
:10056000F8BDC046000000207C00002008B500F067
:1005700061FF021E05D10449A9230B7102F060FB43
:10058000FEE7FFF789FF08BD2003002008B5002023
:1005900002F0F2FE01F070F908BD08B502F016FF96
:1005A00002F0EAFE01F068F901F038FB08BD000036
:1005B00070B53C4C23685A78002A42D19D7802F0ED
:1005C00053FE8378002B02D16BB2013303D1216833
:1005D00000258D8010E023689988DA88914203D243
:1005E0009988013189B2998002215956012903D095
:1005F0009B88934200D30125226893789D4209D0BD
:10060000294900202B1C0E33021C0B7102F018FB31
:1006100023689D7023689A78002A03D1234A1268C0
:10062000127804E0012A03D1204A12685278DA7065
:100630001A1C68321278DD6B002A14D01B6CED187E
:1006400011E05A780025012A0DD1184D29688A78C1
:10065000DA7002F03FFA002803D02B682268DB78BA
:10066000D37023681D6C2368D87801F01BFD061C2D
:10067000281C01F03BFD301A01F07CFD031C012019
:10068000002B0AD02368D87801F00CFD041C281C2C
:1006900001F02CFD201A01F06DFD01F0ADFD01F01F
:1006A000B3FD70BD0000002020030020C80300201F
:1006B00008B502F003FE00F0A9FF08BDF0B5A7B031
:1006C00002F0CCF96D462235287002F035FE02F0BA
:1006D0005BFE00F097FEFFF749FF02F0BFF96E46A0
:1006E0002336041C3070082800D1F7E027D80228F0
:1006F00000D1B7E0052800D1E6E0002800D02AE1CB
:10070000974B1E6802F0CEF970700EAE211C60226D
:10071000301C02F06AFE211C142209A802F065FEBA
:1007200010AB0A9312AB0B9316AB0C9309960524EE
:1007300002F0A0FD01F0A8F901F012FC0BE00B287B
:1007400000D1F7E00D2800D1FEE0092800D002E139
:1007500002F0C8F9D9E0022C12D004D8002C6FD0D6
:10076000012C0AD073E0042C40D028D3052C6ED184
:1007700001F09AFBC0B202F099FA002002F078F87A
:1007800002F066FB071C02F06FFB061C02F072FB16
:10079000734B3A1D1B6800900220019009A802903B
:1007A00000200390191CDB6848310493081C331C9B
:1007B0000EA900F041FC052C01D0002447E009AB54
:1007C000002150220B981974597402F00EFE644EE9
:1007D0000120011C376801F007FB624B38641B687D
:1007E00001201A783368DA7002F042F802F030FB28
:1007F000071C02F039FB079002F03CFB8446584E80
:100800003A1C67460837316800970227019709AFFD
:10081000029701270397081C079B096930320233AE
:100820000491483010A900F007FC33681A1C6832A4
:100830001278002A01D04C4A12685A66052CBCD1A5
:1008400068462330291C09AA00F09EF9041C02F016
:1008500005F96B4623331B78834200D17BE7FFF712
:1008600027FF78E0FFF792FE02F0BEF8002001F0CB
:100870006DFBFFF711FE02F035F902F03DF9041EA1
:10088000062C0BD0062804D8052810D101F0BCF99D
:100890000DE0142805D0172803D008E001F0BEF9B8
:1008A00005E002F031F9011C201C00F089FC02F087
:1008B000D5F833788342E0D0FFF76FFE002001F0D7
:1008C00045FBFFF7E9FD46E002F00CF901F08CFB77
:1008D00002F0C4F833788342FAD03CE002F002F927
:1008E00022494323002203200B7102F0A9F901F0F1
:1008F00037FB0020012101F069FA01F041FB02F011
:10090000ADF833788342EBD025E018494323002229
:1009100003200B7102F094F901F022FB0120011C6D
:1009200001F054FA01F02CFB02F098F8337883427E
:10093000EBD010E002F0D6F8FFF7C8FD02F08EF819
:1009400033788342F8D006E002F0CCF802F086F863
:1009500033788342FAD06B4623331B782B70BCE686
:1009600000000020C80300201801003020030020F0
:1009700008B502F0B9FC00F049FE08BD70B502F000
:1009800025FD02F071FC041C02F08CF82C4D2B6844
:100990002E1C5A78824233D058705B78012B0AD1D2
:1009A0006369E360236AA361E36A63626389E38046
:1009B0006379E37024E023490020DF23021C0B71DC
:1009C00002F03EF9E368201C6361A3690021236201
:1009D000636A0822E362E38818306381E378637115
:1009E00002F003FD201C00210822243002F0FDFC4F
:1009F0002B6800215878C0B202F076FC01201EE07E
:100A000002F034F8041C02F039F8031C002C0AD060
:100A1000002002F03BF8336800215878C0B2FFF79D
:100A2000A7FF05200BE0201C002B08D002F034F8B3
:100A3000336801215878C0B2FFF79AFF032070BDD8
:100A40000000002020030020F0B58FB002AFB96095
:100A5000051C48490020A623FA60021C0B7102F015
:100A6000EFF8FFF7A5FD444C2268131C68331B7890
:100A7000002B03D112695360136019E0281C083061
:100A8000012100F059FA3D490423CB70CB230B71AF
:100A9000236802201A69487002F0D2F801F0BCF90C
:100AA000061C02F045F9864202D0301C02F030F9F3
:100AB000FA68281CB96800F023FA2368061C5A78E3
:100AC000012A0AD02D490422CA70672202200A7125
:100AD000DA68487002F0B4F801E0032846D06A46AC
:100AE0002168FA600C23CA682020D258C018043B41
:100AF000C2511A1DF7D13D1C143500210C22281CAF
:100B000002F073FC01232B7004236B70AB706B71CC
:100B100020230022DB1900930220131C291C02F061
:100B200055F8174BF8681A68164B85469A4202D05A
:100B300001F05AFAFEE701F075FB22685178C9B25C
:100B4000002902D1081C01F041F9236868331B78A1
:100B5000002B03D00120011C01F038F9236800208C
:100B60001856FFF70BFF002800D0061C301CBD46AE
:100B70000DB0F0BD20030020000000207C0000200C
:100B8000E8030020CDCDCDCD7FB50C1C051C161C77
:100B900002F06AFB10226846002102F026FC22784F
:100BA0002B789A4203D001F09DFF2B78237002F03E
:100BB00077F8041C01F078F9A04204D0201C01F061
:100BC00079F905240BE0301C694602AAFFF73CFFC7
:100BD000041E04D101F042FF2B788342E7D0201C91
:100BE00004B070BDF0B587B0019300260CAB171CA4
:100BF0009E57041C0D1C02F02BF9831DDA7F012E79
:100C000001D1513002782478002C19D02B789342EE
:100C100012DC0133DBB22B700393019B1149059366
:100C200046235B425E430020103603AA04970E71F0
:100C3000002402F005F812E000232B7001240EE0DE
:100C4000019B0849049357235B425E4309202036E9
:100C500003AA039705940E7101F0F2FF2C70201C7B
:100C600007B0F0BD83000020F0B599B0089207915D
:100C7000071C02F0EDF8069002F0F6F8099002F079
:100C8000F9F89D4B00221B68041C9A62DA620C235F
:100C90000422013A0DD310A9012A02DC3D68E8586C
:100CA00003E07E68F01808380068800BC850043BE9
:100CB000EFE70AAD00210C22281C02F096FB01236D
:100CC00080222B70524204236B70AB7013436B7104
:100CD000002210AB00930920131C291C01F076FFA1
:100CE000854B1B685B78002B00D1ABE0824D002266
:100CF0002B6878685A619A61191C1B690192099ADC
:100D000000900232069E0292A2683036039214319D
:100D10000898321C00F060FD00280BD12A68E368B7
:100D2000D27801900092CC22029278680899321C05
:100D300002F05CFA714902234B707C235B42CB705A
:100D4000089ACD2301200B7101F07AFF02F080F8A0
:100D5000694D041C2B68666C181C99695A694630E9
:100D6000236C009600F052FB00F080FD05900120FE
:100D700001F0C6F8061C012001F0D8F8069005988D
:100D8000C088059002F076F82B680121181C4630C7
:100D90000278002A0DD17A68059F12687E43069F6B
:100DA0007E43F117490E8919C9118903914289417E
:100DB00049421E1CC9B24636221C3170523212788A
:100DC000002A08D00122002904D1646DDF6DA742FA
:100DD00000DB0A1C3270191C01279A6947315B69D4
:100DE0000097FFF7FFFE061E07D02B68391C5878C6
:100DF000C0B2FFF7BDFD03207BE014AD0DAC079939
:100E00001022281C02F0E8FA311C0C22201C02F0EF
:100E1000ECFA62797F2104238A436370A370134341
:100E200080225242134363712770381C211C321CEC
:100E3000331C009501F0CAFE0798089900F024FBC6
:100E4000301C56E002250595059D2B4E3868336809
:100E5000013D0595191C059ADB6800900998069DCF
:100E600002900192226804350392283107982A1CC7
:100E700000F0B2FC00280CD13268059ED27863687D
:100E80000092692202920196386807992A1C02F0A2
:100E9000ADF9059D002DD7D118497C235B42CB705D
:100EA00002266A230120079A4E700B7101F0C8FEDA
:100EB000114D069E2B68D96A9A6A181C7369B66927
:100EC0004430009600F0A2FA2B68059E181C191CED
:100ED000DA6A44309B6A45310096FFF783FE0028AA
:100EE00000D103E72B6805995878C0B2FFF740FDA1
:100EF000022019B0F0BDC046000000207C00002098
:100F000070B5141C0D1C061C02F0AEF9094B002133
:100F100018682822143002F068FA221C301C291CA0
:100F2000FFF7A2FE041E03D100F0D8FA00F06EFB1A
:100F3000201C70BD00000020F0B585B0041C01F03D
:100F400087FF3B493B4E0423CB70CE230B713368A4
:100F500002251A690290281C4D7001F071FE237A57
:100F60002168AB40CB18039333681F6901F082FFFF
:100F70003F68039A029B1760227A52330132D2B241
:100F800022721B78002B1BD0637A07209C4601330A
:100F9000DF0F002198427941494267460B40B90072
:100FA00067689B00C9592068AD1ADB594D435A4305
:100FB0004168006808182D1AAA1831685208CA65D5
:100FC0000022217A131C0132881A471C04D025689C
:100FD000800040591B18F6E76068012903D9627A3E
:100FE0005910920081501C2200218558043A491959
:100FF000171DFAD1627A257A92008258306802264B
:10100000751B55435B195B089A1A00695118C9088A
:101010000160237A012B04D900232372637A013300
:101020006372637A072B01D90023637205B0F0BDA8
:101030007C00002000000020F0B58BB00993002454
:1010400013AB059108921C57051C01F001FF079096
:10105000119800218200059802F0C7F9002C06D1F2
:10106000544B201C03211F6800F0BEFEF863201CB7
:1010700000F046FF071C201C00F058FF009701906D
:101080000294281C0899109A119B01F0F9FE012C7A
:1010900037D1082206920227129800210830FFF764
:1010A0004BFF444D2B68D87800F0FCFF2B68061CE2
:1010B000186C01F01BF8301A01F05CF801260028CA
:1010C0000CD02A68D07800F0EDFF2B68061C186C55
:1010D00001F00CF8301A01F04DF8061C301C01F03C
:1010E0008BF801F091F801F09DF80120011C013FFF
:1010F00000F06CFE002FCFD1069B013B0693002B26
:10110000C9D107980578002D22D0012C15D1301CAB
:1011100001F072F801F078F801F084F812980021DB
:101120000830FFF709FF05981499119A02F022F888
:10113000201C032100F04AFE08E0201C032100F0DF
:1011400045FE05981499119A02F014F8013DDAE76A
:10115000119B012C12D1174B129A1B68157468331E
:101160001B78002B02D0119B013B07E0119B013B38
:10117000F9D305989A0000218150F8E7079A009367
:101180001378059801930899109A099B02F000F8CA
:10119000094C0E23A371119B04206370211C692349
:1011A000059A2371E07001F04BFD0023A3710BB091
:1011B000F0BDC046000000207C0000207047704752
:1011C000F0B595B0069002911022002110A802F00F
:1011D0000CF900241022FF210CA802F006F9201CB3
:1011E000089401F045FB211C201C00F0EFFD0120BC
:1011F00001F03EFB0120211C00F0E8FD069A172AB1
:1012000050D1029B0393A34203D1764B1B689B7C76
:101210000393039A0592059B002B43D013AD0FACAB
:101220000427013F3BD3012F1ADDBB0000260793A3
:101230000496049A039B9A420DDA0120002100F0E3
:10124000C5FD694B079A1B68DB689B58F618049B21
:1012500001330493EDE7301C191CFEF70FFF08E083
:101260000020011C00F0B2FD5F4BBA001B68DB6878
:10127000D0582A68031E934200D2131C22682B60A8
:10128000904200D9101C20607F22181AFD2801D836
:101290004008C2B208ABFA54043D043CC1E7059AC9
:1012A000013AB7E7514B08221878514BC0B200936E
:1012B0000021504B01F0ACFD069A142A07D0172AE2
:1012C00078D10125FFF77BFF08AE2F1C75E0029B4C
:1012D000002B03D1434B1B685B7C0293029A039261
:1012E000039A002A50D013AD0424013C48D3424E47
:1012F000424F012C0BDC002000F018FE002000F013
:10130000FFFD33681A1C2E32167838330AE00120AC
:1013100000F00CFE012000F0F3FD33681A1C62326D
:1013200016786C331B7800215F430497344FFA23FF
:1013300000970722DB00301C01F06AFDFA230097BA
:1013400000210722DB00301C01F062FD264B221C2D
:101350001B6812329200D05AD35C80046927800D3A
:101360001B0778431B0F2A277B43C018049B0A21C5
:10137000C018FEF7D1FE2A68043D10186860B4E773
:10138000039B013B0393ABE713980299FEF776FEAC
:10139000029913901298FEF771FE0299129011981B
:1013A000FEF76CFE029911901098FEF767FE109000
:1013B000FFF704FF10AE0025042709AC0C22201C07
:1013C000002102F012F8ED01012323702F430423C2
:1013D000201C311C6370A3702371677101F09CFBAA
:1013E00015B0F0BDC4030020000000203200003022
:1013F00030750000F0550000CC0300201A4F0000AB
:101400002823000008B501F091FA08BD10B5002AA4
:1014100002DDD14205D50AE0002A02D10124994219
:1014200006DB029B01249A4202DC002400E0012436
:10143000047010BD08B50122104B52421A8700F00B
:1014400049FDFEF74FFF00F0C5FB00F02FFB00F059
:10145000DFFA00F079FA00F0E2FA00F0F9FA00F0B1
:1014600017FF62B6064B1B681A78064B1B68002AEA
:1014700001D0012200E002221A6108BD00001050D4
:10148000D003002074000020134B70B51C680023AB
:1014900023700D1C061CFEF7F9FF41784B425941A1
:1014A00043784900002B0ED14A1C9200A218043246
:1014B0000B1C06E098003058002800DC002010606B
:1014C000043A013BF6D202312B6889006418002BE4
:1014D00000DC0023636070BD9C020020F0B5474B28
:1014E00085B01C6801F040FB00232370FEF7CEFF9F
:1014F00001904578EDB2012D00D003256F1E013516
:101500007E00AD00A6196519063604353C4B022F46
:101510000CD001984278002A04D11B6819780291F6
:101520009B7807E001984278012A04D11B689979D9
:1015300002911B7A03932B68002B0BD0AA69002A17
:1015400003DC0298834205DA02E003998B4201DA58
:1015500000232B60019B5A78D2B2002A0FD1E36896
:10156000333B622B0BD82369333B622B07D82549C9
:10157000F023E2602261101C0B7101F061FB2B680B
:101580001F4A002B17D033881F4918B2884201D058
:101590000133338013680020315E9B7A994203DC6B
:1015A00001235B422B6002E0237801332370E319AF
:1015B0000022DA701CE012680021705E0092927ABC
:1015C000904214DDEA68002A12D0E019C1788446FE
:1015D000481CC0B26146C87040B284460098C17AC7
:1015E0008C4504DC2A6023780133237000E03380CB
:1015F000023E043D013F89D205B0F0BD9C020020AF
:10160000E003002020030020FF7F0000F0B56F4BB7
:1016100089B01B68039301F04DFA059001F052FA6E
:10162000029001F0A1FA01F099FA071CFEF72EFFD3
:101630004378051CDBB2012B00D003235C1C03990B
:10164000A4000F225E1E0C1913400434049307AB50
:1016500000221A809A70022E02D06A78012A03D1E1
:101660001A7840210A431A7007AB1A780F218A436F
:1016700004990A431A70022E0BD06B78002B05D107
:10168000534B1B681A8800925B8807E06B78012B2C
:1016900005D14F4B1B68D98800911B890193E268E3
:1016A000019923688A421CDC00998B4219DB07AA46
:1016B00010788021494201431170042F04D1FF2B7F
:1016C00000DDFF23537049E0092F47D1414A93427F
:1016D00000DD131C5BBA07AA9BB253701B0A937000
:1016E0003CE000998A4202DB01998B4236DD022EF2
:1016F00002D06B78012B3CD1009B9A4239DB2268E7
:1017000001998A4235DB314B1B6830331B78002B43
:101710001ED1029B012B2CD107AB187880214942A6
:1017200001431970042F04D1FF2A00DDFF225A70F3
:101730000CE0092F0AD1131C264A934200DD131C2A
:101740005BBA07AA9BB253701B0A9370012306E091
:10175000012B0ED102990029F8D00AE00023022EB5
:1017600002D06A78012A24D1002B19D007A801F0F1
:1017700005FA2368049AA361013A0F231A40043C36
:101780000492013E00D362E70399029A0B788B70B2
:101790000E4B1B6830331A7001F004FA09B0F0BD2B
:1017A000029A002AE5D007A801F0E8F92368E3606F
:1017B000DFE76B78002BDCD105990029D9D007A889
:1017C00001F0DCF92268E260D3E7C0469C02002009
:1017D000E0030020FFFF0000F0B5069D1F4EAC00A7
:1017E0000E611D59531CDB7F002B06D0069B079F03
:1017F000FF5C089B7D435D436D13059F3B599B0B2D
:101800005B1B002B0DDD1C27D55FAB4218DB0F687F
:101810005D1BBD4200DA3D1C0D608D6801358D6099
:101820000EE0002B0CD01E27D55FAB4208DC4F68C2
:101830005D1BBD4200DD3D1C4D60CD680135CD60B6
:101840000351B34200DA054B0B611821525ED817E1
:10185000D10F93424841C0B2F0BDC0460080FFFFA7
:10186000014B18607047C046D0030020014B186838
:101870007047C046D0030020014B18607047C04637
:10188000CC030020014B18687047C046CC030020F1
:101890001B4B30B500211C1C1A781A4889180133DB
:1018A000C9B28342F8D1184B00221D780133521976
:1018B000164DD2B2AB42F8D12478AA2C02D10078CE
:1018C000814201D0002004E01B789A42FAD1012025
:1018D00014E08022520383189B001B68FF2293436D
:1018E0000B4A934202D1002802D107E0002B04D119
:1018F00001300428EDD1022000E0002030BDC046B8
:101900005000400057004000580040005F00400079
:1019100000FFFFFF084B094A5864081A0021986429
:10192000118001221A64C046054B1B88002BFBD096
:10193000044B188880B27047000010504C001050C3
:101940005200105050001050C0239B051A1C032158
:10195000F23211705170114A12683C3210781A1C20
:10196000F13210700D3A0A201070181C01229430C8
:1019700002704170191C9031FF330A70CA709A725C
:10198000074BC22292009958FF2081434020014317
:101990009950802252001A607047C046CC03002044
:1019A00000E100E00A4B002902D0D96F014301E0B9
:1019B000D96F8143D967074B002A02D01A6C0243C2
:1019C00001E01A6C82431A641A6810431860704769
:1019D0000400025000000250074BC243002903D00C
:1019E000D96F0843D86702E0D96F1140D967034B1C
:1019F000196C0A401A64704704000250000002503B
:101A0000024B1A6C104318647047C0460000025025
:101A100008B501200021021CFFF7C4FF08BDC02348
:101A20009B05191C0322AF31181C0A70AE3000212F
:101A300001700238027004220271C2710630027015
:101A40001A1CB1321170B43301221A7070470000B1
:101A50000A4BFF201B681A7B094B9A7400225A74A8
:101A600001221A74074BC1229200995881438020A9
:101A70000143995010221A607047C046CC030020E1
:101A80000000105000E100E008B5034800211022DA
:101A900001F0ABFC08BDC0460C010030024B012236
:101AA000DA770022DA7770470500003038B5394D13
:101AB0002B689A68C0239B051A63374B01221A7062
:101AC000FFF7E6FE01283CD1344A354B11780F2947
:101AD00002D81278D2B200E00022DA772A68937A2C
:101AE000022B01D12F4B06E0042B01D12E4B02E03B
:101AF000062B07D12D4B1978092903D819782C4BBF
:101B0000C9B219701378A02B01D12A4A06E07D2BA7
:101B100001D1294A02E0B02B02D1284A1478E4B25C
:101B2000E4B2211C2031C9B2254A402902D8E41868
:101B3000E4B21470234B117A1B78CB18DBB213720A
:101B400025E0022823D18022D2031178144B0F29DB
:101B500002D81278D2B200E00022DA772B681B7824
:101B6000A02B01D1184A06E07D2B01D1174A02E0D3
:101B7000B02B02D1164A1478E4B2E4B2221C10321F
:101B8000D2B2202A03D8E4180D4AE4B21470FFF749
:101B900085FF38BDCC030020800000305800400095
:101BA000080000305B0040005A004000590040002F
:101BB000320000305100400052004000530040000D
:101BC0000000105054004000040040000800400095
:101BD0000C004000C0239B05191C10B500222A31BF
:101BE000181C1C1C0A70283401212B300170217034
:101BF000233862700824C477D81D0633C177DA779A
:101C0000FFF74CFF10BD000008B5034B00211B6817
:101C10001869FFF7E1FE08BD7400002008B5034B0A
:101C20001B681869FFF7ECFE08BDC0467400002071
:101C3000044A054B12681B6810691840434258411A
:101C4000C0B2704774000020C00002500A4B1B69EC
:101C50005A0706D5A023DB051A7E002AFAD10122F5
:101C60001A7472B6054B1B5C002B03D1C04630BF03
:101C700062B6EBE762B6704700ED00E0AC0300200F
:101C800072B60A4B1B5C002B0DD1C04662B6084BE6
:101C90001B695A07F4D5A023DB051A7E002AFAD166
:101CA00001221A74ECE762B67047C046AC0300200C
:101CB00000ED00E00D4B1B685A78002A0ED00C494D
:101CC00052B252000868511D8900591848600949EC
:101CD0000432096892009B18596005E0064A1268B0
:101CE0009A61064A12685A617047C0467400002023
:101CF0001801003014010030100100300C010030D8
:101D000038B5C0239B051A1C00253032157050329F
:101D1000157001249A1DD477DA1DD5772833223225
:101D200014701D70FFF7BAFE044B0E22DC701D709C
:101D30001A731A1C323214705C7338BD00001050D4
:101D400038B500F0ADFF0F4A0F4B10701B68111C27
:101D50009B7BC0241373A40500233231D37001256B
:101D60000B705373E21DD577A21DD3772232157005
:101D70005370FFF793FE231C803330341D702570A1
:101D800038BDC04600001050CC0300200B4A08B5F7
:101D9000002313720A4A1268D17B0A4A1175C022C5
:101DA0009205012111701172074A1370984204D0F4
:101DB0000820FFF74BFFFFF77DFF08BDAC030020B5
:101DC000CC030020000010509200003010B5041C1D
:101DD00000F060FA034B01201B685C70FFF7D6FF30
:101DE00010BDC0467400002010B5041C00F034FA89
:101DF000201C00F04FFA074B00201B685C70FFF7B7
:101E0000C5FF0820FFF73CFFFFF754FF00F032FA50
:101E100010BDC0467400002073B51C4C1C4E2368D6
:101E2000FA25ED006233187800212B1C009607225A
:101E300000F0EEFF236800216233187807222B1C84
:101E4000009600F0E5FF134B00211878124B072293
:101E50000093C0B2114B00F0DBFF114B69221B68ED
:101E60000A21503318881B788004800D1B075043CB
:101E70001B0F2A225343C01823680A4A6C331B786D
:101E80005343C018FEF748F980B276BDCC0300205A
:101E9000282300003200003030750000F0550000AB
:101EA000000000201A4F0000014B1878C0B27047A4
:101EB00000001050064A1378DBB2834206D001DAE4
:101EC000013300E0013BD9B21170F6E77047C0461C
:101ED00000001050084B1A68084B507B591CC877FB
:101EE000107C991CC87701215975116819605168D7
:101EF0009960927B1A737047CC0300200000105049
:101F0000002804D1084B1B68D87D9B7D08E0012880
:101F100009D1054B1B681A1C4B324A3310781B78C9
:101F2000C01A0130FFE77047CC030020002803D11E
:101F3000054B1B68588B06E0012804D1024B1B6837
:101F40004E331888FFE77047CC03002008B5FFF731
:101F5000C1FFFFF7ABFDFFF7F7FC00F099F908BDF3
:101F600010B5054C0123237300218022034801F0A2
:101F70003CFA0023237310BDFF0000300000023044
:101F8000F0B5164E012389B0337368460021202234
:101F900001F02BFA1023013B08D32F21104AC91A54
:101FA0004900895A68465A008152F4E70D4CB32320
:101FB00010270225211C0320094AE5702371677050
:101FC00000F03EFEE57003200025211C6A46677084
:101FD000257100F035FE357309B0F0BDFF0000300B
:101FE000000002307C000020F7B5234800F07EF8A6
:101FF00000F022F9214F0025214E224CB7421FD27A
:102000008036F31B2026832B00DC9E100123667094
:1020100000203A1C211CB610E370207100F010FE65
:102020003B1C321C013A08D3002D04D11649186814
:10203000884200D01D1C0433F4E7B600BF19DBE76B
:102040000E4904226B1A01270193E270A723211C79
:1020500001AA002067702371843600F0F1FD04238B
:10206000751BE3700020A823211C01AA019567704D
:10207000237100F0E5FDF7BD801A0600E80300209B
:10208000800700207C000020CDCDCDCD014B18680D
:102090001430704774000020014B18681C307047E2
:1020A0007400002070B50D4BFF2419781E7B631A55
:1020B0008921490059430A4B051CC9180948FEF7F4
:1020C0002BF8084BF6B25843074BB600F1580C40BA
:1020D000291C6143FEF720F870BDC0460000105077
:1020E0001953000040420F00FC33000070B50B4B49
:1020F000FF2419781D7B631A892149005943084B35
:10210000061CC9180748FEF707F8EDB2064BAD00EC
:10211000E95870432140FDF7FFFF70BD00001050EB
:102120001953000040420F00FC33000010B50C4B67
:102130000C491A7B1B7892008C5C0B4A4443126852
:102140000A489168CB1A8921FF3349005943084B4B
:10215000C918FDF7E1FFC1B2201CFDF7DDFF10BD7E
:1021600000001050FC3300007400002040420F00BB
:1021700019530000F7B5194BFF251A7B1F78197A00
:102180009C7A9300E4B20094154C691A1B59154AC5
:1021900043430193144B154859438918FDF7BCFF7D
:1021A000FFB28921ED1B49006943114B061CC91878
:1021B0001048FDF7B1FF011C301CFDF7ADFF019A7F
:1021C00003235043009AFA2113409B00E418236C28
:1021D00089005943FDF7A0FFFEBDC0460000105026
:1021E000FC3300005CAA0900350C000000CA9A3BD1
:1021F0001953000040420F00024B00221A709A70DF
:102200009860704700000850044B00221A71044B7C
:10221000DA609A705A7001221A707047AC0300207D
:102220000000085008B5FFF76BFD0420FFF70EFD16
:10223000FFF786FD08BD00000002064B000A0138CA
:10224000002258609A6005221A60C0461A68D103BD
:10225000FCD5704710E000E0044B054900221A60ED
:1022600059609A6005221A607047C04610E000E08D
:10227000FFFFFF0010B5044C0448A368C01AFFF725
:1022800055FF0023236010BD10E000E0FFFFFF00BA
:1022900001207047F7B5051E03D1574B1C68143455
:1022A00004E0012802D1544B1C684834206A534B87
:1022B00053491860A27E534B53481A70227A534BED
:1022C000C0261A70A27B524BB6051A70E27D514BA4
:1022D0001A70E37CCB70A27C4F4B1A70236BDAB27E
:1022E0004E4B1A70227F4E4B1A70E27F4D4B1A7084
:1022F000A27F4D4B1A70E18CFDF70EFF231C2A3391
:102300001B7803384343DA17520ED218231C2B33A1
:102310001B78D2114343DF177F0EFF18231C2C3389
:102320001B78FF117B43D917490ECB18DB110193A2
:10233000231C29331B783D495843C3175B0E1818DB
:10234000C011C0B20870D10F891839484910C9B2FC
:10235000009101700078D2B2101A3649C0B20870EC
:102360003548FFB20770201C283007783348344BBB
:1023700007700099334801703348012101700078DB
:10238000121A0198033A12183048D2B20270227C15
:102390001B480270002D13D12D4A1068827A5971A2
:1023A0001A71621DD57F5D72C07A59731873D27F1E
:1023B0005A7402221A7080238B402168F15015E074
:1023C000012D17D1224A11680A7B5D751A75621DAD
:1023D000D07F5876497B5D771977D17F1D4AD177B9
:1023E00004221A70226880235B00F2506268822304
:1023F0005B00F250F7BDC046CC03002098000030CF
:102400008C00003096000030204E00008400003028
:102410008A000030930000308E000030AC000030A5
:10242000B0000030B3000030B2000030EA000030ED
:10243000EE000030EC000030ED000030F100003024
:10244000C0000030F0000030EF000030EB00003042
:10245000D0030020C2000030F7B50022914202D024
:10246000012900D10222510041181C4D0C88D600D0
:102470007619F4800F881A4B141C1B681234BF05A0
:10248000A400BF0C0197174DE75A2F40019D3D4313
:102490000F7AE55237720F89E65C0F210F408E43A9
:1024A0003E43E654541C660080190C4D0688E40037
:1024B0006419E680133206889200D75A094DB60592
:1024C000B60C3D403543D552057A2572D45C00895F
:1024D0008C430840211C0143D154F7BDC00000309B
:1024E000000000200FC0FFFFF7B5002508AC6557BE
:1024F0000026B54202D0012D00D102267400B6009C
:10250000041901960020019EB446104EB44466465C
:1025100037183E68964202D927887F1A04E03F6840
:102520009F4202D227887F1827800430023408286F
:10253000E9D10749054F02234B70ED000423EA1946
:10254000CB703F230B7100F07BFBF7BD0C0100301B
:102550007C000020F0B591B0061CFFF7D1FC041CF4
:10256000301CFFF7E3FC9B4B1968002E01D14A8811
:1025700000E0CA8862434243D117490E8A18D2113B
:1025800005921B68002E01D19B8800E01B895C43EB
:102590004443E3175B0E1C19E41108940B948E4C12
:1025A000059AE3780A927F229343042780223B43D3
:1025B0005242134302216170E37000204723211C23
:1025C0000AAA237100F03CFB80230CAD9B0008217C
:1025D0001A1C2B806B800B1C29816981AA80111C1D
:1025E000AB811A1CE378E9807F218B43EA810222C8
:1025F00062701F43794A3F232371F3009A180F40FA
:102600000820211CE770099200F01AFB0223637076
:10261000E3787F218B43022213430B40E370412375
:102620002371B300EB181A1C0820211C069300F03C
:1026300007FB02236370E3787F2177008B4302223C
:10264000043713437F000B40EF19E370211C422332
:102650003A1C08202371079700F0F2FA80210A2320
:10266000890004930391271C0399049A4910013AA5
:1026700003910492002A3ED00CA8311CFFF7ECFE17
:10268000301C0021FFF7A2FB00960CA80399059AC5
:10269000089BFFF729FF012E22D1514C2268D078E8
:1026A000FFF700FD2368051C186CFFF71FFD281AB3
:1026B000FFF760FD031C301C002B0BD02368D8787B
:1026C000FFF7F0FC2368051C186CFFF70FFD281AB4
:1026D000FFF750FDFFF790FDFFF796FDFFF7A2FD16
:1026E0003D4902234B70CB7008204123069A0B71A1
:1026F00000F0A6FAB8E7082304240393039A013CE8
:10270000521003920CA8311C002C3ED0FFF7A4FEFF
:10271000301C0021FFF75AFB00960EA80399059A7A
:10272000089BFFF7E1FE012E24D12D4D2968C878C2
:10273000FFF7B8FC2B680490186CFFF7D7FC049ADD
:10274000101AFFF717FD031C301C002B0CD02B6850
:10275000D878FFF7A7FC2B680490186CFFF7C6FC2D
:102760000499081AFFF706FDFFF746FDFFF74CFD39
:10277000FFF758FD184902234B70CB700820422305
:10278000079A0B7100F05CFAB8E7FFF765FE301CA2
:10279000211CFFF71BFB04230225FB70201C402398
:1027A000391C099A3B717D7000F04AFA4123201CC4
:1027B000391C069A3B717D70FD7000F041FA42238E
:1027C000201C391C079A7D70FD703B7100F038FAAF
:1027D00011B0F0BDD00300207C0000200C010030BF
:1027E00000000020F0B587B00C1C161C051C0293DD
:1027F000FFF786FB0390281CFFF798FBA21CD30071
:102800000092184AF6B29A1816720192029A01239F
:1028100093406F003F190593134BBF0000240490B1
:10282000FF18261C059A964207DA281C0021FFF79C
:10283000CDFA3B680136E418F4E70C4B009A1B68AC
:1028400012329200D35C019A1B071B0F137204997A
:10285000039BE0015943FDF75FFC029A104107B06A
:10286000F0BDC046C00000300C0100300000002068
:1028700008B5FFF76FFE08BD014B18607047C046F2
:10288000D403002038B5FDF7F5FD051CFEF7EEFF7B
:10289000244C291C2068102200F09EFD226803238E
:1028A0009375214B0F20597E1D7E090229439D7E81
:1028B0001A1C08322D04A26029436269DD7E636020
:1028C0002D061070E26829430D0A117055700D0C29
:1028D000090ED170597F95701D7F090229439D7F94
:1028E0002D042943DD7F2D0629430D0A11715571F1
:1028F0000D0C090ED171191C2D331B782C31097860
:102900001B020B4313721B0A5372A36995710222B7
:10291000D8709A70E3691A6800221A6004221A714A
:102920005A7138BD8C000020D03F000038B5FDF74B
:10293000A1FDFEF79BFF124CA56A00F019FD68602F
:10294000FFF7A0FF0F4B226B1B681B88190A517100
:1029500013710221042B03D00021092B00D1032184
:10296000231C3C33917101225A7000229A7000F0AE
:10297000FBFC054B04225860236C1A7038BDC0461E
:102980008C000020D40300202803002008B5084A4A
:10299000916C4B780749DBB20B72012B05D0022BEF
:1029A00005D1536C01225A7001E0FFF72DF908BDE3
:1029B0008C00002028030020094B10B51B7A094C1D
:1029C000012B05D0022B05D1626C0023537001E06E
:1029D000FFF724F9636B7F211A788A431A7010BDC0
:1029E000280300208C000020F8B5194D0024194E52
:1029F000337A012B07D0002B18D0022B17D1164B9E
:102A00005B6C5C7813E0FFF713F9041C002D0BD10D
:102A1000FFF704F92E23FF33013B002B01D0C04602
:102A2000FAE7FFF7F1F80A4D013D00E01C1C0A4FE0
:102A3000BA6C5378327A9A4206D0FFF7BDFFBB6C6E
:102A4000044A5B78137201E0002CD0D1F8BDC04677
:102A5000FF2C0100280300208C000020024B9B6CFF
:102A60001878C0B27047C0468C000020024B9B6CA7
:102A7000187DC0B27047C0468C000020024B9B6C92
:102A8000587DC0B27047C0468C000020014B9B6C43
:102A9000187570478C000020014B9B6C587570476F
:102AA0008C000020024B9B6CD878C0B27047C046A7
:102AB0008C000020024B9B6CD87DC0B27047C04692
:102AC0008C000020024B9B6C187EC0B27047C04641
:102AD0008C000020024B9B6C987EC0B27047C046B1
:102AE0008C000020034BA0225B6C1A701A78A02A7D
:102AF000FCD070478C000020024B1B6D1878C0B2D0
:102B00007047C0468C000020024B1B6D9878C0B205
:102B10007047C0468C0000200E4B30B51A6DFF2464
:102B200014700D4C5865216005788478996A6C435F
:102B30000579407964194006400E60430860586C7E
:102B4000A0210170996C1378FF2B02D10B78022B16
:102B5000F9D030BD8C00002028030020014B1B68F9
:102B600018887047D403002008B5FFF73DFF024BDB
:102B70000022DA6008BDC0462803002070B5074B6C
:102B8000074C1A6BE668011C9579986B2A1C801912
:102B9000751900F021FCE56070BDC0468C00002076
:102BA0002803002008B5074BDB68002B09D0064A34
:102BB000DBB2506B7F21194001703C329370FFF7FC
:102BC000E5FE08BD280300208C00002073B56C468C
:102BD000E271194A0734D56D2E7886422AD1FF203A
:102BE00028709366131C9C331B6820789B688000B8
:102BF000116654661871114B06980C781860887825
:102C0000936A60430C79497900194906490E41439A
:102C10001960516CA0230B70D16D936C0A78FF2A58
:102C200002D11A78002AF9D00A78FF2A02D11A783C
:102C30000A2AF3D073BDC0468C0000202803002070
:102C400070B5144CE36B1D79EDB2012D21D1854097
:102C500058781E78000230439E7836043043DE7880
:102C600036063043284214D0FF2018710A482164E8
:102C700002608C780D78C9786C434906490E074A82
:102C80006143906A526C0160772111701A79FF2AB2
:102C9000FCD070BD0C010020280300208C00002017
:102CA000014B5B6C987870470C010020014B5B6C0A
:102CB000987070470C010020024BDB689872000A84
:102CC000D87270478C000020014B5B699872704786
:102CD0008C000020014B5B69D87470478C00002089
:102CE000014B5B69D87270478C000020014B5B6917
:102CF000187570478C000020014B5B69D8757047D0
:102D00008C000020014B5B69187670478C00002016
:102D1000024B5B699876000AD87670478C000020D9
:102D2000024B5B691877000A587770478C000020C7
:102D3000034B5B69D87E9A7E000210437047C04601
:102D40008C000020002303600B60204BF7B59A42F3
:102D50003ADC13121E4C122B25D89B00E418E46EAB
:102D6000002C31D0E368013B5D1C2DD0D5B201951C
:102D700065681E1CEF5C019D013BED1BF4D42768C8
:102D8000B300DB59002B1FD0A268925D521B0A6072
:102D9000002A02DD5D19056016E00E4B4833036022
:102DA0005B780B6010E0E36A666A013B0CD35D0060
:102DB000755B551BF9D4266A9B00F25852190260C4
:102DC000A26AD3585D1B0D60F7BDC046FFEF00003F
:102DD0008C0000200C010020C02208B5D2000B4B53
:102DE000904206D15B6C1A78052A0DD005221A7024
:102DF0000AE05B6B84221B7892005B065B0E9B18DB
:102E0000984201D1FFF7D8FD08BDC0468C000020D4
:102E100038B5051C1C1C181C8D4209DB0498954212
:102E200006DAC01A6D1A6843511AFDF775F92018B1
:102E300038BD000010B5054C2060007FFFF75CFF37
:102E4000236848331878FFF75DFF10BDD8030020D2
:102E5000014B18687047C046D8030020014B18602A
:102E60007047C046DC030020014B18687047C0461D
:102E7000DC030020014B18687047C0469802002010
:102E8000F0B597B00B9300271EABDF570890009169
:102E9000161CFDF7FBFA0490FEF7F4FC002F06D198
:102EA0003830B14A0378151C5D4302970BE0012FBF
:102EB00007D16C30AC4A0378151C02215D430291A6
:102EC00001E000250295A94900203823021C0B715E
:102ED000FFF7B6FE029A08999300089AC9180433BE
:102EE000D3180991002280210A930B9B0791069128
:102EF00003920192141C5A1E0592002B73D0012FCD
:102F000059D1059B002B11D10999692308882A22E0
:102F10008004800D58430B780A211B071B0F534375
:102F2000C0184019FDF7F8F8041C5AE0059A012A68
:102F300057D10A9B0A99188869238004800D584349
:102F40000B782A221B071B0F5343C0180A21401974
:102F5000FDF7E2F8391C019000220323381CFFF72B
:102F600041FC391C03900F220323381CFFF73AFC65
:102F7000039A831ADA1799185140009B0391188914
:102F8000002804D1049B80226C331A8006E0C00123
:102F90000399FDF773F8049B6C33188000994889F6
:102FA00000281ED0C0010021FDF7B6F8002280B233
:102FB0000690079215E00299059A8B1808999B00D4
:102FC000CB1818881B7880046922800D1B0750439A
:102FD0001B0F2A225343C01840190A21FDF79CF801
:102FE0002418059B87E7012F04D0201C0B99FDF7BF
:102FF00045F8041C009B9D88002D02D1802333607E
:1030000007E0E801211CFDF739F8DC2800DDDC20B1
:103010003060009964220B881D995A431C9B5A43C7
:103020004A43D3175B0E9B18009ADB110132D27F03
:10303000002A02D032685343DB117360069B4C496F
:103040005C4302234B707C235B42E409CB7000207D
:103050005F230CAA0C950D940B71FFF7F1FD012F66
:1030600000D07FE0019988B2FFF75AFE009A049DD4
:10307000168D6A352E80D488002C21D0177B6421D0
:10308000381C64306043FDF747F8019B834208D841
:103090006421CF1B381C6043FDF73EF80199814243
:1030A00004D2049B002268331A7009E0019A94420A
:1030B00006D0101C141970436108FCF7DFFF28804C
:1030C000009B0699DC88019B009A4B43DB09129414
:1030D0001393158D019B211C5D43281CFCF7CEFF2B
:1030E000019914900C196108281CFCF7C7FF204CAB
:1030F0007F26E37804258022B34357422B433B438A
:103100001590E37000206023211C12AA65702371C2
:10311000FFF796FD009A0799138902220E93039BED
:1031200062704B43DB090F93E3780020B3432B43DA
:103130003B43E370211C61230EAA2371FFF780FD3E
:10314000009902224B8900201093E3786270B34308
:103150001D433D436223211C10AA1190E570237189
:10316000FFF76EFD17B0F0BD1A4F000020030020DE
:103170007C00002070B59300C018C9180023043BE0
:10318000013A04D3C558CE58AC19C450F7E770BD06
:10319000F7B5089C051C0091171C0193013C12D344
:1031A000A600A8590999FCF769FF009B0133DB7F52
:1031B000002B05D0019A135D58433B6858434013D8
:1031C0008003A851EAE7084C089A0E23A3716270A5
:1031D000042044232A1C211C2371E070FFF730FDDA
:1031E0000023A371F7BDC0467C00002070B5161CFB
:1031F000059A940005191A20325E0C59944200DA9F
:10320000141C0499181CFCF787FF4443B3782A6800
:103210001C41141B2C60084C0E23A371069B012635
:1032200004202A1C211C6670E0702371FFF708FD42
:103230000023301CA37170BD7C00002010B5094C28
:1032400020600078FFF740FD23689878FFF742FD83
:1032500023689879FFF744FD2368187AFFF746FD45
:1032600010BDC046E0030020014B18687047C046FF
:103270009C02002038B5104C0C2520682A1C002127
:103280000C3000F0B2F820682A1C0021183000F041
:10329000ACF8206800210622063000F0A6F820686D
:1032A00000210322033000F0A0F820680021302222
:1032B00000F09BF838BDC0469C020020094B10B5B9
:1032C0001C680021A01D082200F08FF8E01C0021DE
:1032D000042200F08AF8201C002110220C3000F09B
:1032E00084F810BD9C020020124B70B51E680028A7
:1032F00005D10225002905D00125022403E001297A
:1033000001D10D1C0024600030186A000021063035
:1033100000F06BF830190234A4002A1C3619002181
:10332000033000F062F8AA00301D002100F05DF8C3
:1033300070BDC0469C02002010B5094C201CFEF751
:103340008FFA201C0E30FDF78FF8201C2230FFF77B
:1033500093FAFEF78BFA0348FFF780FD10BDC046D5
:10336000E43D0000F43E000000487047E43D0000EA
:103370008820400070470000EC235843014B181888
:1033800024307047E43D00000D4B10B51B68EC2461
:103390001B785C430B4B2034E4180B4B201D18604A
:1033A000FEF76AFA201C8030FDF76AF8201C843092
:1033B000FFF740FD201CE030FFF740FF10BDC04686
:1033C000D4020020E43D0000E4030020014B1B6810
:1033D00018787047D402002010B50023934203D020
:1033E000CC5CC4540133F9E710BD031C821893422E
:1033F00002D019700133FAE77047FFFF00000000A8
:1034000002000000030000000400000005000000AE
:103410000600000007000000080000000A0000008D
:103420000C00000010000000140000001800000054
:103430001C0000002000000001000000020000004D
:10344000040000000800000010000000040000203C
:103450000000FF000000000000000000000000006D
:10346000000000000000000000000000000000005C
:10347000000000000000000000000000000000004C
:10348000000000000000000000000000000000003C
:10349000000000000000000000000000000000002C
:1034A000000000000000000000000000000000001C
:1034B000000000000000000001000000000000000B
:1034C000EC020020270300200100000000000001A2
:1034D00003008400000000006F03002000000000D3
:1034E00000000000630300208B0200206D0200201A
:1034F000310200204803002028030020560100204C
:1035000038030020020000005C0300205B03002061
:103510004F03002007000000470300206B0200203B
:1035200050020020400200203D0200200000000068
:10353000350200204E0300200000000000000000C3
:1035400000000000000000000C020020F801002034
:10355000000000000000000000000000E401002066
:10356000D00100200000000000000000B801002091
:10357000000000009C01002000000000000000008E
:103580000000000084010020700100205C01002088
:103590002D0200202802002000000000420300202D
:1035A00000010020006000005001002040030020C6
:1035B0006C0100200100000005000000CC0000208C
:1035C00041030020800100200100000001000000F4
:1035D0004401002097010020940100200300000016
:1035E0000405070010200000E4000020B1010020C5
:1035F000AC0100200500000008010C0104001020AF
:1036000030310000D8000020CB010020C80100208C
:103610000300000008030C0010200000A40000209C
:10362000E2010020E001002002000000040600107A
:10363000D0000020F6010020F4010020020000006C
:10364000021B0010BC00002008020020C80000205F
:1036500003000000001011008C0000202202002056
:103660001C020020060000001708080C0A1E00209B
:1036700030405070010000000000200601000100F1
:1036800000002010020E020000FF000000200302D4
:10369000600090004C020020006009010001000061
:1036A000000000000000000000000000000000001A
:1036B00000000001010000050000483248534D455C
:1036C00000000000000000000000000000000000FA
:1036D000000000000000004D4950000000000009FB
:1036E0000500000094030020A0020020000000005C
:1036F00000000000000000000000000000000000CA
:1037000000000000000000000000000000000000B9
:1037100000000000000000000000000001000000A8
:10372000A4030020FFFFFFFFFFFFFFFFFFFFFFFFDE
:10373000FFFFFFFFFFFFFFFFFFFFFFFFFFFFFFFF99
:10374000FFFFFFFFFFFFFFFFFFFFFFFFFFFFFFFF89
:10375000FFFFFFFFFFFFFFFFFFFFFFFFFFFFFFFF79
:10376000FFFFFFFFFFFFFFFFFFFFFFFFFFFFFFFF69
:103DD0001001FFFF483248535041524130303030DB
:103DE000303030300100E40CB80BE40CB80B0001AB
:103DF0000302323031375F4A355F4B4559000000CE
:103E000000000A1E0A000900A00800009401000139
:103E1000010004000001030F030000003001032C27
:103E2000000004000100000000000100100009096A
:103E3000010101010103070003000404030800005D
:103E400000005E010540202000000000030000008B
:103E500030050E2100006C00010000000000010090
:103E6000080009080101010101070700040004041A
:103E700006040300010064000A2B2A2A0000000047
:103E8000030000005A5A0F0F030000003F0001001A
:103E900000000000000000000000000074FFFFFFB1
:103EA000DC0500003200CEFF3200CEFF0102000030
:103EB00000000000000000001E000000B01BF62102
:103EC0000E020000190000006AFFFFFFFFFFFF7FE6
:103ED0003C00C4FF1400F6FF00050000A015FFFF22
:103EE00091000000640032009600C80064000201E6
:103EF000040000002D314000FFFFFFFFFFFFFFFF28
:103F0000FFFFFFFFFFFFFFFFFFFFFFFFFFFFFFFFC1
:103F1000FFFFFFFFFFFFFFFFFFFFFFFFFFFFFFFFB1
:103F2000FFFFFFFFFFFFFFFFFFFFFFFFFFFFFFFFA1
:103F3000FFFFFFFFFFFFFFFFFFFFFFFFFFFFFFFF91
:103F4000FFFFFFFFFFFFFFFFFFFFFFFFFFFFFFFF81
:103F5000FFFFFFFFFFFFFFFFFFFFFFFFFFFFFFFF71
:103F6000FFFFFFFFFFFFFFFFFFFFFFFFFFFFFFFF61
:103F7000FFFFFFFFFFFFFFFFFFFFFFFFFFFFFFFF51
:103F8000FFFFFFFFFFFFFFFFFFFFFFFFFFFFFFFF41
:103F9000FFFFFFFFFFFFFFFFFFFFFFFFFFFFFFFF31
:103FA000FFFFFFFFFFFFFFFFFFFFFFFFFFFFFFFF21
:103FB000FFFFFFFFFFFFFFFFFFFFFFFFFFFF1001FE
:103FC0004D425401483248530000000000400000B8
:103FD000EEEE040110011001EEEEEEEE000F0F10F8
:103FE000002209012E020000210317205956130058
:103FF000000000000000000000004000773D0000CD
:00000001FF
